{
  "_format": "hh-sol-artifact-1",
  "contractName": "RabbitGreed",
  "sourceName": "contracts/RabbitGreed.sol",
  "abi": [
    {
      "inputs": [
        {
          "internalType": "contract RabbitRocket",
          "name": "_rabbitRocket",
          "type": "address"
        }
      ],
      "stateMutability": "nonpayable",
      "type": "constructor"
    },
    {
      "anonymous": false,
      "inputs": [
        {
          "indexed": false,
          "internalType": "address",
          "name": "userAddress",
          "type": "address"
        },
        {
          "indexed": false,
          "internalType": "address payable",
          "name": "relayerAddress",
          "type": "address"
        },
        {
          "indexed": false,
          "internalType": "bytes",
          "name": "functionSignature",
          "type": "bytes"
        }
      ],
      "name": "MetaTransactionExecuted",
      "type": "event"
    },
    {
      "anonymous": false,
      "inputs": [
        {
          "indexed": true,
          "internalType": "bytes32",
          "name": "role",
          "type": "bytes32"
        },
        {
          "indexed": true,
          "internalType": "bytes32",
          "name": "previousAdminRole",
          "type": "bytes32"
        },
        {
          "indexed": true,
          "internalType": "bytes32",
          "name": "newAdminRole",
          "type": "bytes32"
        }
      ],
      "name": "RoleAdminChanged",
      "type": "event"
    },
    {
      "anonymous": false,
      "inputs": [
        {
          "indexed": true,
          "internalType": "bytes32",
          "name": "role",
          "type": "bytes32"
        },
        {
          "indexed": true,
          "internalType": "address",
          "name": "account",
          "type": "address"
        },
        {
          "indexed": true,
          "internalType": "address",
          "name": "sender",
          "type": "address"
        }
      ],
      "name": "RoleGranted",
      "type": "event"
    },
    {
      "anonymous": false,
      "inputs": [
        {
          "indexed": true,
          "internalType": "bytes32",
          "name": "role",
          "type": "bytes32"
        },
        {
          "indexed": true,
          "internalType": "address",
          "name": "account",
          "type": "address"
        },
        {
          "indexed": true,
          "internalType": "address",
          "name": "sender",
          "type": "address"
        }
      ],
      "name": "RoleRevoked",
      "type": "event"
    },
    {
      "inputs": [],
      "name": "DEFAULT_ADMIN_ROLE",
      "outputs": [
        {
          "internalType": "bytes32",
          "name": "",
          "type": "bytes32"
        }
      ],
      "stateMutability": "view",
      "type": "function"
    },
    {
      "inputs": [],
      "name": "MASTER_ROLE",
      "outputs": [
        {
          "internalType": "bytes32",
          "name": "",
          "type": "bytes32"
        }
      ],
      "stateMutability": "view",
      "type": "function"
    },
    {
      "inputs": [
        {
          "internalType": "address",
          "name": "userAddress",
          "type": "address"
        },
        {
          "internalType": "bytes",
          "name": "functionSignature",
          "type": "bytes"
        },
        {
          "internalType": "bytes32",
          "name": "sigR",
          "type": "bytes32"
        },
        {
          "internalType": "bytes32",
          "name": "sigS",
          "type": "bytes32"
        },
        {
          "internalType": "uint8",
          "name": "sigV",
          "type": "uint8"
        }
      ],
      "name": "executeMetaTransaction",
      "outputs": [
        {
          "internalType": "bytes",
          "name": "",
          "type": "bytes"
        }
      ],
      "stateMutability": "payable",
      "type": "function"
    },
    {
      "inputs": [],
      "name": "first",
      "outputs": [
        {
          "internalType": "address",
          "name": "",
          "type": "address"
        }
      ],
      "stateMutability": "view",
      "type": "function"
    },
    {
      "inputs": [
        {
          "internalType": "address",
          "name": "user",
          "type": "address"
        }
      ],
      "name": "getNonce",
      "outputs": [
        {
          "internalType": "uint256",
          "name": "nonce",
          "type": "uint256"
        }
      ],
      "stateMutability": "view",
      "type": "function"
    },
    {
      "inputs": [
        {
          "internalType": "bytes32",
          "name": "role",
          "type": "bytes32"
        }
      ],
      "name": "getRoleAdmin",
      "outputs": [
        {
          "internalType": "bytes32",
          "name": "",
          "type": "bytes32"
        }
      ],
      "stateMutability": "view",
      "type": "function"
    },
    {
      "inputs": [
        {
          "internalType": "bytes32",
          "name": "role",
          "type": "bytes32"
        },
        {
          "internalType": "uint256",
          "name": "index",
          "type": "uint256"
        }
      ],
      "name": "getRoleMember",
      "outputs": [
        {
          "internalType": "address",
          "name": "",
          "type": "address"
        }
      ],
      "stateMutability": "view",
      "type": "function"
    },
    {
      "inputs": [
        {
          "internalType": "bytes32",
          "name": "role",
          "type": "bytes32"
        }
      ],
      "name": "getRoleMemberCount",
      "outputs": [
        {
          "internalType": "uint256",
          "name": "",
          "type": "uint256"
        }
      ],
      "stateMutability": "view",
      "type": "function"
    },
    {
      "inputs": [
        {
          "internalType": "bytes32",
          "name": "role",
          "type": "bytes32"
        },
        {
          "internalType": "address",
          "name": "account",
          "type": "address"
        }
      ],
      "name": "grantRole",
      "outputs": [],
      "stateMutability": "nonpayable",
      "type": "function"
    },
    {
      "inputs": [
        {
          "internalType": "bytes32",
          "name": "role",
          "type": "bytes32"
        },
        {
          "internalType": "address",
          "name": "account",
          "type": "address"
        }
      ],
      "name": "hasRole",
      "outputs": [
        {
          "internalType": "bool",
          "name": "",
          "type": "bool"
        }
      ],
      "stateMutability": "view",
      "type": "function"
    },
    {
      "inputs": [
        {
          "internalType": "address",
          "name": "_for",
          "type": "address"
        },
        {
          "internalType": "uint32",
          "name": "_amount",
          "type": "uint32"
        }
      ],
      "name": "increaseTotalBuys",
      "outputs": [],
      "stateMutability": "payable",
      "type": "function"
    },
    {
      "inputs": [
        {
          "internalType": "address",
          "name": "dest",
          "type": "address"
        }
      ],
      "name": "payments",
      "outputs": [
        {
          "internalType": "uint256",
          "name": "",
          "type": "uint256"
        }
      ],
      "stateMutability": "view",
      "type": "function"
    },
    {
      "inputs": [
        {
          "internalType": "bytes32",
          "name": "role",
          "type": "bytes32"
        },
        {
          "internalType": "address",
          "name": "account",
          "type": "address"
        }
      ],
      "name": "renounceRole",
      "outputs": [],
      "stateMutability": "nonpayable",
      "type": "function"
    },
    {
      "inputs": [
        {
          "internalType": "bytes32",
          "name": "role",
          "type": "bytes32"
        },
        {
          "internalType": "address",
          "name": "account",
          "type": "address"
        }
      ],
      "name": "revokeRole",
      "outputs": [],
      "stateMutability": "nonpayable",
      "type": "function"
    },
    {
      "inputs": [],
      "name": "second",
      "outputs": [
        {
          "internalType": "address",
          "name": "",
          "type": "address"
        }
      ],
      "stateMutability": "view",
      "type": "function"
    },
    {
      "inputs": [],
      "name": "sendRewards",
      "outputs": [],
      "stateMutability": "nonpayable",
      "type": "function"
    },
    {
      "inputs": [
        {
          "internalType": "bytes4",
          "name": "interfaceId",
          "type": "bytes4"
        }
      ],
      "name": "supportsInterface",
      "outputs": [
        {
          "internalType": "bool",
          "name": "",
          "type": "bool"
        }
      ],
      "stateMutability": "view",
      "type": "function"
    },
    {
      "inputs": [],
      "name": "third",
      "outputs": [
        {
          "internalType": "address",
          "name": "",
          "type": "address"
        }
      ],
      "stateMutability": "view",
      "type": "function"
    },
    {
      "inputs": [
        {
          "internalType": "address",
          "name": "",
          "type": "address"
        }
      ],
      "name": "totalBuys",
      "outputs": [
        {
          "internalType": "uint32",
          "name": "",
          "type": "uint32"
        }
      ],
      "stateMutability": "view",
      "type": "function"
    },
    {
      "inputs": [
        {
          "internalType": "address payable",
          "name": "payee",
          "type": "address"
        }
      ],
      "name": "withdrawPayments",
      "outputs": [],
      "stateMutability": "nonpayable",
      "type": "function"
    }
  ],
  "bytecode": "0x60a06040523480156200001157600080fd5b506040516200245838038062002458833981016040819052620000349162000399565b6040518060400160405280601881526020017f4052616262697443617463682f52616262697447726565640000000000000000815250604051806040016040528060058152602001640312e302e360dc1b81525081816040518060800160405280604f815260200162002409604f9139805190602001208280519060200120828051906020012030620000cc620001c360201b60201c565b60408051602081019690965285019390935260608401919091526001600160a01b0316608083015260a082015260c00160405160208183030381529060405280519060200120600281905550505050506040516200012a906200038b565b604051809103906000f08015801562000147573d6000803e3d6000fd5b5060601b6001600160601b0319166080526200018d7f8b8c0776df2c2176edf6f82391c35ea4891146d7a976ee36fd07f1a6fb4ead4c62000187620001c7565b62000226565b6200019d600062000187620001c7565b600880546001600160a01b0319166001600160a01b0392909216919091179055620003c9565b4690565b6000333014156200022057600080368080601f0160208091040260200160405190810160405280939291908181526020018383808284376000920191909152505050503601516001600160a01b03169150620002239050565b50335b90565b62000232828262000236565b5050565b6200024d82826200027960201b62000d8f1760201c565b60008281526001602090815260409091206200027491839062000e1362000319821b17901c565b505050565b6000828152602081815260408083206001600160a01b038516845290915290205460ff1662000232576000828152602081815260408083206001600160a01b03851684529091529020805460ff19166001179055620002d53390565b6001600160a01b0316816001600160a01b0316837f2f8788117e7eff1d82e926ec794901d17c78024a50270940304540a733656f0d60405160405180910390a45050565b600062000330836001600160a01b03841662000339565b90505b92915050565b6000818152600183016020526040812054620003825750815460018181018455600084815260208082209093018490558454848252828601909352604090209190915562000333565b50600062000333565b6105ef8062001e1a83390190565b600060208284031215620003ab578081fd5b81516001600160a01b0381168114620003c2578182fd5b9392505050565b60805160601c611a24620003f66000396000818161071001528181610d1301526110280152611a246000f3fe60806040526004361061011e5760003560e01c80639010d07c116100a0578063bd75496411610064578063bd75496414610378578063ca15c8731461038b578063d547741f146103ab578063dc224863146103cb578063e2982c21146103ff57600080fd5b80639010d07c146102ee57806391d148541461030e57806395cb1b1e1461032e578063a217fddf14610343578063a6dc67711461035857600080fd5b80632f2ff15d116100e75780632f2ff15d1461023457806331b3eb941461025657806336568abe146102765780633df4ddf4146102965780635a8ac02d146102ce57600080fd5b80624d039c1461012357806301ffc9a7146101705780630c53c51c146101a0578063248a9ca3146101c05780632d0335ab146101fe575b600080fd5b34801561012f57600080fd5b5061015661013e366004611557565b60046020526000908152604090205463ffffffff1681565b60405163ffffffff90911681526020015b60405180910390f35b34801561017c57600080fd5b5061019061018b366004611711565b61041f565b6040519015158152602001610167565b6101b36101ae366004611573565b61044a565b604051610167919061187a565b3480156101cc57600080fd5b506101f06101db3660046116b4565b60009081526020819052604090206001015490565b604051908152602001610167565b34801561020a57600080fd5b506101f0610219366004611557565b6001600160a01b031660009081526003602052604090205490565b34801561024057600080fd5b5061025461024f3660046116cc565b6106c6565b005b34801561026257600080fd5b50610254610271366004611557565b6106f1565b34801561028257600080fd5b506102546102913660046116cc565b61076f565b3480156102a257600080fd5b506005546102b6906001600160a01b031681565b6040516001600160a01b039091168152602001610167565b3480156102da57600080fd5b506006546102b6906001600160a01b031681565b3480156102fa57600080fd5b506102b66103093660046116f0565b6107ed565b34801561031a57600080fd5b506101906103293660046116cc565b61080c565b34801561033a57600080fd5b50610254610835565b34801561034f57600080fd5b506101f0600081565b34801561036457600080fd5b506007546102b6906001600160a01b031681565b610254610386366004611654565b610994565b34801561039757600080fd5b506101f06103a63660046116b4565b610cb4565b3480156103b757600080fd5b506102546103c63660046116cc565b610ccb565b3480156103d757600080fd5b506101f07f8b8c0776df2c2176edf6f82391c35ea4891146d7a976ee36fd07f1a6fb4ead4c81565b34801561040b57600080fd5b506101f061041a366004611557565b610cf1565b60006001600160e01b03198216635a05180f60e01b1480610444575061044482610e28565b92915050565b6060600061045786610e5d565b90506000356001600160e01b031990811690821614156104e45760405162461bcd60e51b815260206004820152603d60248201527f66756e6374696f6e5369676e61747572652063616e206e6f74206265206f662060448201527f657865637574654d6574615472616e73616374696f6e206d6574686f6400000060648201526084015b60405180910390fd5b604080516060810182526001600160a01b038916600081815260036020908152908490205483528201529081018790526105218882888888610e79565b6105775760405162461bcd60e51b815260206004820152602160248201527f5369676e657220616e64207369676e617475726520646f206e6f74206d6174636044820152600d60fb1b60648201526084016104db565b6001600160a01b03881660009081526003602052604090205461059b90600161188d565b6001600160a01b03891660009081526003602090815260408083209390935591519091829130916105d0918c918e9101611799565b60408051601f19818403018152908290526105ea9161177d565b6000604051808303816000865af19150503d8060008114610627576040519150601f19603f3d011682016040523d82523d6000602084013e61062c565b606091505b50915091508161067e5760405162461bcd60e51b815260206004820152601c60248201527f46756e6374696f6e2063616c6c206e6f74207375636365737366756c0000000060448201526064016104db565b7f5845892132946850460bff5a0083f71031bc5bf9aadcd40f1de79423eac9b10b8a338b6040516106b193929190611845565b60405180910390a19998505050505050505050565b6000828152602081905260409020600101546106e28133610f55565b6106ec8383610fb9565b505050565b6040516351cff8d960e01b81526001600160a01b0382811660048301527f000000000000000000000000000000000000000000000000000000000000000016906351cff8d990602401600060405180830381600087803b15801561075457600080fd5b505af1158015610768573d6000803e3d6000fd5b5050505050565b6001600160a01b03811633146107df5760405162461bcd60e51b815260206004820152602f60248201527f416363657373436f6e74726f6c3a2063616e206f6e6c792072656e6f756e636560448201526e103937b632b9903337b91039b2b63360891b60648201526084016104db565b6107e98282610fdb565b5050565b60008281526001602052604081206108059083610ffd565b9392505050565b6000918252602082815260408084206001600160a01b0393909316845291905290205460ff1690565b7f8b8c0776df2c2176edf6f82391c35ea4891146d7a976ee36fd07f1a6fb4ead4c6108608133610f55565b600860009054906101000a90046001600160a01b03166001600160a01b031663b4bd9e276040518163ffffffff1660e01b815260040160206040518083038186803b1580156108ae57600080fd5b505afa1580156108c2573d6000803e3d6000fd5b505050506040513d601f19601f820116820180604052508101906108e69190611694565b6109405760405162461bcd60e51b815260206004820152602560248201527f52616262697447726565643a20526162626974526f636b6574204973204e6f746044820152641027bb32b960d91b60648201526084016104db565b600554610960906001600160a01b031661095b6002476118cd565b611009565b60065461097b906001600160a01b031661095b6002476118cd565b600754610991906001600160a01b031647611009565b50565b7f8b8c0776df2c2176edf6f82391c35ea4891146d7a976ee36fd07f1a6fb4ead4c6109bf8133610f55565b600860009054906101000a90046001600160a01b03166001600160a01b031663b4bd9e276040518163ffffffff1660e01b815260040160206040518083038186803b158015610a0d57600080fd5b505afa158015610a21573d6000803e3d6000fd5b505050506040513d601f19601f82011682018060405250810190610a459190611694565b15610a9c5760405162461bcd60e51b815260206004820152602160248201527f52616262697447726565643a20526162626974526f636b6574206973206f76656044820152603960f91b60648201526084016104db565b6001600160a01b03831660009081526004602052604081208054849290610aca90849063ffffffff166118a5565b82546101009290920a63ffffffff8181021990931691831602179091556005546001600160a01b03908116600090815260046020526040808220549288168252902054908216911611159050610bbe576005546001600160a01b0384811691161415610b3557505050565b6006546001600160a01b0384811691161415610b7d57505060058054600680546001600160a01b038084166001600160a01b0319928316179092559091169216919091179055565b60068054600780546001600160a01b03199081166001600160a01b038085169190911790925560058054938216848416179094559086169116179055505050565b6006546001600160a01b0390811660009081526004602052604080822054928616825290205463ffffffff91821691161115610c41576006546001600160a01b0384811691161415610c0f57505050565b505060068054600780546001600160a01b038084166001600160a01b0319928316179092559091169216919091179055565b6007546001600160a01b0390811660009081526004602052604080822054928616825290205463ffffffff918216911611156106ec576007546001600160a01b0384811691161415610c9257505050565b600780546001600160a01b0385166001600160a01b0319909116179055505050565b60008181526001602052604081206104449061108a565b600082815260208190526040902060010154610ce78133610f55565b6106ec8383610fdb565b6040516371d4ed8d60e11b81526001600160a01b0382811660048301526000917f00000000000000000000000000000000000000000000000000000000000000009091169063e3a9db1a9060240160206040518083038186803b158015610d5757600080fd5b505afa158015610d6b573d6000803e3d6000fd5b505050506040513d601f19601f820116820180604052508101906104449190611739565b610d99828261080c565b6107e9576000828152602081815260408083206001600160a01b03851684529091529020805460ff19166001179055610dcf3390565b6001600160a01b0316816001600160a01b0316837f2f8788117e7eff1d82e926ec794901d17c78024a50270940304540a733656f0d60405160405180910390a45050565b6000610805836001600160a01b038416611094565b60006001600160e01b03198216637965db0b60e01b148061044457506301ffc9a760e01b6001600160e01b0319831614610444565b6000815160001415610e7157506000919050565b506020015190565b6000806001610e8f610e8a886110e3565b611160565b6040805160008152602081018083529290925260ff861690820152606081018790526080810186905260a0016020604051602081039080840390855afa158015610edd573d6000803e3d6000fd5b5050604051601f1901519150506001600160a01b038116610f345760405162461bcd60e51b8152602060048201526011602482015270496e76616c6964207369676e617475726560781b60448201526064016104db565b866001600160a01b0316816001600160a01b03161491505095945050505050565b610f5f828261080c565b6107e957610f77816001600160a01b03166014611190565b610f82836020611190565b604051602001610f939291906117d0565b60408051601f198184030181529082905262461bcd60e51b82526104db9160040161187a565b610fc38282610d8f565b60008281526001602052604090206106ec9082610e13565b610fe58282611372565b60008281526001602052604090206106ec90826113d7565b600061080583836113ec565b60405163f340fa0160e01b81526001600160a01b0383811660048301527f0000000000000000000000000000000000000000000000000000000000000000169063f340fa019083906024016000604051808303818588803b15801561106d57600080fd5b505af1158015611081573d6000803e3d6000fd5b50505050505050565b6000610444825490565b60008181526001830160205260408120546110db57508154600181810184556000848152602080822090930184905584548482528286019093526040902091909155610444565b506000610444565b60006040518060800160405280604381526020016119ac6043913980516020918201208351848301516040808701518051908601209051611143950193845260208401929092526001600160a01b03166040830152606082015260800190565b604051602081830303815290604052805190602001209050919050565b600061116b60025490565b60405161190160f01b6020820152602281019190915260428101839052606201611143565b6060600061119f8360026118ed565b6111aa90600261188d565b67ffffffffffffffff8111156111d057634e487b7160e01b600052604160045260246000fd5b6040519080825280601f01601f1916602001820160405280156111fa576020820181803683370190505b509050600360fc1b8160008151811061122357634e487b7160e01b600052603260045260246000fd5b60200101906001600160f81b031916908160001a905350600f60fb1b8160018151811061126057634e487b7160e01b600052603260045260246000fd5b60200101906001600160f81b031916908160001a90535060006112848460026118ed565b61128f90600161188d565b90505b6001811115611323576f181899199a1a9b1b9c1cb0b131b232b360811b85600f16601081106112d157634e487b7160e01b600052603260045260246000fd5b1a60f81b8282815181106112f557634e487b7160e01b600052603260045260246000fd5b60200101906001600160f81b031916908160001a90535060049490941c9361131c81611953565b9050611292565b5083156108055760405162461bcd60e51b815260206004820181905260248201527f537472696e67733a20686578206c656e67746820696e73756666696369656e7460448201526064016104db565b61137c828261080c565b156107e9576000828152602081815260408083206001600160a01b0385168085529252808320805460ff1916905551339285917ff6391f5c32d9c69d2a47ea670b442974b53935d1edc7fd64eb21e047a839171b9190a45050565b6000610805836001600160a01b038416611424565b600082600001828154811061141157634e487b7160e01b600052603260045260246000fd5b9060005260206000200154905092915050565b6000818152600183016020526040812054801561153757600061144860018361190c565b855490915060009061145c9060019061190c565b90508181146114dd57600086600001828154811061148a57634e487b7160e01b600052603260045260246000fd5b90600052602060002001549050808760000184815481106114bb57634e487b7160e01b600052603260045260246000fd5b6000918252602080832090910192909255918252600188019052604090208390555b85548690806114fc57634e487b7160e01b600052603160045260246000fd5b600190038181906000526020600020016000905590558560010160008681526020019081526020016000206000905560019350505050610444565b6000915050610444565b803560ff8116811461155257600080fd5b919050565b600060208284031215611568578081fd5b813561080581611996565b600080600080600060a0868803121561158a578081fd5b853561159581611996565b9450602086013567ffffffffffffffff808211156115b1578283fd5b818801915088601f8301126115c4578283fd5b8135818111156115d6576115d6611980565b604051601f8201601f19908116603f011681019083821181831017156115fe576115fe611980565b816040528281528b6020848701011115611616578586fd5b826020860160208301379182016020018590525095505050604086013592506060860135915061164860808701611541565b90509295509295909350565b60008060408385031215611666578182fd5b823561167181611996565b9150602083013563ffffffff81168114611689578182fd5b809150509250929050565b6000602082840312156116a5578081fd5b81518015158114610805578182fd5b6000602082840312156116c5578081fd5b5035919050565b600080604083850312156116de578182fd5b82359150602083013561168981611996565b60008060408385031215611702578182fd5b50508035926020909101359150565b600060208284031215611722578081fd5b81356001600160e01b031981168114610805578182fd5b60006020828403121561174a578081fd5b5051919050565b60008151808452611769816020860160208601611923565b601f01601f19169290920160200192915050565b6000825161178f818460208701611923565b9190910192915050565b600083516117ab818460208801611923565b60609390931b6bffffffffffffffffffffffff19169190920190815260140192915050565b7f416363657373436f6e74726f6c3a206163636f756e7420000000000000000000815260008351611808816017850160208801611923565b7001034b99036b4b9b9b4b733903937b6329607d1b6017918401918201528351611839816028840160208801611923565b01602801949350505050565b6001600160a01b0384811682528316602082015260606040820181905260009061187190830184611751565b95945050505050565b6020815260006108056020830184611751565b600082198211156118a0576118a061196a565b500190565b600063ffffffff8083168185168083038211156118c4576118c461196a565b01949350505050565b6000826118e857634e487b7160e01b81526012600452602481fd5b500490565b60008160001904831182151516156119075761190761196a565b500290565b60008282101561191e5761191e61196a565b500390565b60005b8381101561193e578181015183820152602001611926565b8381111561194d576000848401525b50505050565b6000816119625761196261196a565b506000190190565b634e487b7160e01b600052601160045260246000fd5b634e487b7160e01b600052604160045260246000fd5b6001600160a01b038116811461099157600080fdfe4d6574615472616e73616374696f6e2875696e74323536206e6f6e63652c616464726573732066726f6d2c62797465732066756e6374696f6e5369676e617475726529a264697066735822122064d817932f5667ef0472798c1971c74a5579bcd019e945b3b5e182a2cb966a3d64736f6c63430008040033608060405234801561001057600080fd5b5061001a3361001f565b61006f565b600080546001600160a01b038381166001600160a01b0319831681178455604051919092169283917f8be0079c531659141344cd1fd0a4f28419497f9722a3daafe3b4186f6b6457e09190a35050565b6105718061007e6000396000f3fe6080604052600436106100555760003560e01c806351cff8d91461005a578063715018a61461007c5780638da5cb5b14610091578063e3a9db1a146100be578063f2fde38b14610102578063f340fa0114610122575b600080fd5b34801561006657600080fd5b5061007a6100753660046104aa565b610135565b005b34801561008857600080fd5b5061007a6101d7565b34801561009d57600080fd5b506000546040516001600160a01b0390911681526020015b60405180910390f35b3480156100ca57600080fd5b506100f46100d93660046104aa565b6001600160a01b031660009081526001602052604090205490565b6040519081526020016100b5565b34801561010e57600080fd5b5061007a61011d3660046104aa565b61020d565b61007a6101303660046104aa565b6102a8565b6000546001600160a01b031633146101685760405162461bcd60e51b815260040161015f906104cd565b60405180910390fd5b6001600160a01b0381166000818152600160205260408120805491905590610190908261033c565b816001600160a01b03167f7084f5476618d8e60b11ef0d7d3f06914655adb8793e28ff7f018d4c76d505d5826040516101cb91815260200190565b60405180910390a25050565b6000546001600160a01b031633146102015760405162461bcd60e51b815260040161015f906104cd565b61020b600061045a565b565b6000546001600160a01b031633146102375760405162461bcd60e51b815260040161015f906104cd565b6001600160a01b03811661029c5760405162461bcd60e51b815260206004820152602660248201527f4f776e61626c653a206e6577206f776e657220697320746865207a65726f206160448201526564647265737360d01b606482015260840161015f565b6102a58161045a565b50565b6000546001600160a01b031633146102d25760405162461bcd60e51b815260040161015f906104cd565b6001600160a01b0381166000908152600160205260408120805434928392916102fc908490610502565b90915550506040518181526001600160a01b038316907f2da466a7b24304f47e87fa2e1e5a81b9831ce54fec19055ce277ca2f39ba42c4906020016101cb565b8047101561038c5760405162461bcd60e51b815260206004820152601d60248201527f416464726573733a20696e73756666696369656e742062616c616e6365000000604482015260640161015f565b6000826001600160a01b03168260405160006040518083038185875af1925050503d80600081146103d9576040519150601f19603f3d011682016040523d82523d6000602084013e6103de565b606091505b50509050806104555760405162461bcd60e51b815260206004820152603a60248201527f416464726573733a20756e61626c6520746f2073656e642076616c75652c207260448201527f6563697069656e74206d61792068617665207265766572746564000000000000606482015260840161015f565b505050565b600080546001600160a01b038381166001600160a01b0319831681178455604051919092169283917f8be0079c531659141344cd1fd0a4f28419497f9722a3daafe3b4186f6b6457e09190a35050565b6000602082840312156104bb578081fd5b81356104c681610526565b9392505050565b6020808252818101527f4f776e61626c653a2063616c6c6572206973206e6f7420746865206f776e6572604082015260600190565b6000821982111561052157634e487b7160e01b81526011600452602481fd5b500190565b6001600160a01b03811681146102a557600080fdfea264697066735822122088702fd4ddcea429b86ffcb261f544be05e79d5fd7b90a9f3a7ecefbe3b90e2c64736f6c63430008040033454950373132446f6d61696e28737472696e67206e616d652c737472696e672076657273696f6e2c6164647265737320766572696679696e67436f6e74726163742c627974657333322073616c7429",
  "linkReferences": {},
  "deployedLinkReferences": {}
}