{
  "_format": "hh-sol-artifact-1",
  "contractName": "RabbitCatchMaster",
  "sourceName": "contracts/RabbitCatchMaster.sol",
  "abi": [
    {
      "inputs": [
        {
          "internalType": "contract RabbitRocket",
          "name": "_rabbitRocket",
          "type": "address"
        },
        {
          "internalType": "contract RabbitCreed",
          "name": "_rabbitCreed",
          "type": "address"
        },
        {
          "internalType": "contract RabbitGreed",
          "name": "_rabbitGreed",
          "type": "address"
        },
        {
          "internalType": "contract RabbitFancier",
          "name": "_rabbitFancier",
          "type": "address"
        },
        {
          "internalType": "contract RabbitBreed",
          "name": "_rabbitBreed",
          "type": "address"
        },
        {
          "internalType": "contract CZodiacNFT",
          "name": "_czodiacNFT",
          "type": "address"
        }
      ],
      "stateMutability": "nonpayable",
      "type": "constructor"
    },
    {
      "anonymous": false,
      "inputs": [
        {
          "indexed": false,
          "internalType": "address",
          "name": "userAddress",
          "type": "address"
        },
        {
          "indexed": false,
          "internalType": "address payable",
          "name": "relayerAddress",
          "type": "address"
        },
        {
          "indexed": false,
          "internalType": "bytes",
          "name": "functionSignature",
          "type": "bytes"
        }
      ],
      "name": "MetaTransactionExecuted",
      "type": "event"
    },
    {
      "anonymous": false,
      "inputs": [
        {
          "indexed": true,
          "internalType": "address",
          "name": "previousOwner",
          "type": "address"
        },
        {
          "indexed": true,
          "internalType": "address",
          "name": "newOwner",
          "type": "address"
        }
      ],
      "name": "OwnershipTransferred",
      "type": "event"
    },
    {
      "inputs": [],
      "name": "baseURI",
      "outputs": [
        {
          "internalType": "string",
          "name": "",
          "type": "string"
        }
      ],
      "stateMutability": "view",
      "type": "function"
    },
    {
      "inputs": [
        {
          "internalType": "address",
          "name": "_for",
          "type": "address"
        }
      ],
      "name": "canMint",
      "outputs": [
        {
          "internalType": "bool",
          "name": "_canMint",
          "type": "bool"
        }
      ],
      "stateMutability": "view",
      "type": "function"
    },
    {
      "inputs": [],
      "name": "czodiacNFT",
      "outputs": [
        {
          "internalType": "contract CZodiacNFT",
          "name": "",
          "type": "address"
        }
      ],
      "stateMutability": "view",
      "type": "function"
    },
    {
      "inputs": [
        {
          "internalType": "address",
          "name": "userAddress",
          "type": "address"
        },
        {
          "internalType": "bytes",
          "name": "functionSignature",
          "type": "bytes"
        },
        {
          "internalType": "bytes32",
          "name": "sigR",
          "type": "bytes32"
        },
        {
          "internalType": "bytes32",
          "name": "sigS",
          "type": "bytes32"
        },
        {
          "internalType": "uint8",
          "name": "sigV",
          "type": "uint8"
        }
      ],
      "name": "executeMetaTransaction",
      "outputs": [
        {
          "internalType": "bytes",
          "name": "",
          "type": "bytes"
        }
      ],
      "stateMutability": "payable",
      "type": "function"
    },
    {
      "inputs": [
        {
          "internalType": "address",
          "name": "user",
          "type": "address"
        }
      ],
      "name": "getNonce",
      "outputs": [
        {
          "internalType": "uint256",
          "name": "nonce",
          "type": "uint256"
        }
      ],
      "stateMutability": "view",
      "type": "function"
    },
    {
      "inputs": [],
      "name": "getPrice",
      "outputs": [
        {
          "internalType": "uint256",
          "name": "_price",
          "type": "uint256"
        }
      ],
      "stateMutability": "view",
      "type": "function"
    },
    {
      "inputs": [
        {
          "internalType": "address",
          "name": "_for",
          "type": "address"
        },
        {
          "internalType": "string",
          "name": "_code",
          "type": "string"
        }
      ],
      "name": "mint",
      "outputs": [],
      "stateMutability": "payable",
      "type": "function"
    },
    {
      "inputs": [],
      "name": "mintCount",
      "outputs": [
        {
          "internalType": "uint256",
          "name": "",
          "type": "uint256"
        }
      ],
      "stateMutability": "view",
      "type": "function"
    },
    {
      "inputs": [],
      "name": "mintCountMax",
      "outputs": [
        {
          "internalType": "uint256",
          "name": "",
          "type": "uint256"
        }
      ],
      "stateMutability": "view",
      "type": "function"
    },
    {
      "inputs": [],
      "name": "mintCountPriceIncrement",
      "outputs": [
        {
          "internalType": "uint256",
          "name": "",
          "type": "uint256"
        }
      ],
      "stateMutability": "view",
      "type": "function"
    },
    {
      "inputs": [],
      "name": "owner",
      "outputs": [
        {
          "internalType": "address",
          "name": "",
          "type": "address"
        }
      ],
      "stateMutability": "view",
      "type": "function"
    },
    {
      "inputs": [],
      "name": "priceIncrement",
      "outputs": [
        {
          "internalType": "uint256",
          "name": "",
          "type": "uint256"
        }
      ],
      "stateMutability": "view",
      "type": "function"
    },
    {
      "inputs": [],
      "name": "priceStart",
      "outputs": [
        {
          "internalType": "uint256",
          "name": "",
          "type": "uint256"
        }
      ],
      "stateMutability": "view",
      "type": "function"
    },
    {
      "inputs": [],
      "name": "rabbitBreed",
      "outputs": [
        {
          "internalType": "contract RabbitBreed",
          "name": "",
          "type": "address"
        }
      ],
      "stateMutability": "view",
      "type": "function"
    },
    {
      "inputs": [],
      "name": "rabbitCreed",
      "outputs": [
        {
          "internalType": "contract RabbitCreed",
          "name": "",
          "type": "address"
        }
      ],
      "stateMutability": "view",
      "type": "function"
    },
    {
      "inputs": [],
      "name": "rabbitFancier",
      "outputs": [
        {
          "internalType": "contract RabbitFancier",
          "name": "",
          "type": "address"
        }
      ],
      "stateMutability": "view",
      "type": "function"
    },
    {
      "inputs": [],
      "name": "rabbitGreed",
      "outputs": [
        {
          "internalType": "contract RabbitGreed",
          "name": "",
          "type": "address"
        }
      ],
      "stateMutability": "view",
      "type": "function"
    },
    {
      "inputs": [],
      "name": "rabbitRocket",
      "outputs": [
        {
          "internalType": "contract RabbitRocket",
          "name": "",
          "type": "address"
        }
      ],
      "stateMutability": "view",
      "type": "function"
    },
    {
      "inputs": [],
      "name": "renounceOwnership",
      "outputs": [],
      "stateMutability": "nonpayable",
      "type": "function"
    },
    {
      "inputs": [
        {
          "internalType": "address",
          "name": "newOwner",
          "type": "address"
        }
      ],
      "name": "transferOwnership",
      "outputs": [],
      "stateMutability": "nonpayable",
      "type": "function"
    },
    {
      "inputs": [
        {
          "internalType": "address",
          "name": "_addr",
          "type": "address"
        },
        {
          "internalType": "bool",
          "name": "_val",
          "type": "bool"
        }
      ],
      "name": "updateWhitelist",
      "outputs": [],
      "stateMutability": "nonpayable",
      "type": "function"
    },
    {
      "inputs": [
        {
          "internalType": "address",
          "name": "",
          "type": "address"
        }
      ],
      "name": "whitelist",
      "outputs": [
        {
          "internalType": "bool",
          "name": "",
          "type": "bool"
        }
      ],
      "stateMutability": "view",
      "type": "function"
    },
    {
      "inputs": [],
      "name": "whitelistMintCap",
      "outputs": [
        {
          "internalType": "uint256",
          "name": "",
          "type": "uint256"
        }
      ],
      "stateMutability": "view",
      "type": "function"
    }
  ],
  "bytecode": "0x60806040523480156200001157600080fd5b5060405162001c5938038062001c59833981016040819052620000349162000205565b6040518060400160405280601e81526020017f4052616262697443617463682f52616262697443617463684d61737465720000815250604051806040016040528060058152602001640312e302e360dc1b8152508181620000a46200009e620001ad60201b60201c565b620001b1565b6040518060800160405280604f815260200162001c0a604f9139805190602001208280519060200120828051906020012030620000e66200020160201b60201c565b60408051602081019690965285019390935260608401919091526001600160a01b0316608083015260a082015260c00160408051808303601f19018152919052805160209091012060019081556003555050600480546001600160a01b03199081166001600160a01b039a8b1617909155600580548216988a169890981790975550506006805486169487169490941790935560078054851692861692909217909155600880548416918516919091179055600980549092169216919091179055620002b1565b3390565b600080546001600160a01b038381166001600160a01b0319831681178455604051919092169283917f8be0079c531659141344cd1fd0a4f28419497f9722a3daafe3b4186f6b6457e09190a35050565b4690565b60008060008060008060c087890312156200021e578182fd5b86516200022b8162000298565b60208801519096506200023e8162000298565b6040880151909550620002518162000298565b6060880151909450620002648162000298565b6080880151909350620002778162000298565b60a08801519092506200028a8162000298565b809150509295509295509295565b6001600160a01b0381168114620002ae57600080fd5b50565b61194980620002c16000396000f3fe6080604052600436106101405760003560e01c80638da5cb5b116100b6578063c2ba47441161006f578063c2ba47441461036c578063d0def5211461038c578063de351b891461039f578063e7ad0257146103bf578063ee16d367146103d4578063f2fde38b146103ea57600080fd5b80638da5cb5b146102a357806394b86f35146102c15780639659867e146102e157806398d5fdca146102f75780639b19251a1461030c578063b9a8b6db1461034c57600080fd5b80632a4e57a1116101085780632a4e57a1146101ee5780632c095f0b146102035780632d0335ab146102235780636c0360eb14610259578063715018a61461026e57806387bcf5991461028357600080fd5b8063093a7ea5146101455780630c53c51c146101825780630d392cd9146101a2578063173067a3146101c4578063280d62ac146101c4575b600080fd5b34801561015157600080fd5b50600654610165906001600160a01b031681565b6040516001600160a01b0390911681526020015b60405180910390f35b610195610190366004611448565b61040a565b60405161017991906116f0565b3480156101ae57600080fd5b506101c26101bd366004611412565b610686565b005b3480156101d057600080fd5b506101e067016345785d8a000081565b604051908152602001610179565b3480156101fa57600080fd5b506101e0606481565b34801561020f57600080fd5b50600954610165906001600160a01b031681565b34801561022f57600080fd5b506101e061023e3660046113f1565b6001600160a01b031660009081526002602052604090205490565b34801561026557600080fd5b506101956106db565b34801561027a57600080fd5b506101c26106f7565b34801561028f57600080fd5b50600754610165906001600160a01b031681565b3480156102af57600080fd5b506000546001600160a01b0316610165565b3480156102cd57600080fd5b50600554610165906001600160a01b031681565b3480156102ed57600080fd5b506101e0600a5481565b34801561030357600080fd5b506101e061072d565b34801561031857600080fd5b5061033c6103273660046113f1565b600b6020526000908152604090205460ff1681565b6040519015158152602001610179565b34801561035857600080fd5b50600854610165906001600160a01b031681565b34801561037857600080fd5b5061033c6103873660046113f1565b610767565b6101c261039a366004611527565b61094a565b3480156103ab57600080fd5b50600454610165906001600160a01b031681565b3480156103cb57600080fd5b506101e0600581565b3480156103e057600080fd5b506101e06109c481565b3480156103f657600080fd5b506101c26104053660046113f1565b610ef9565b6060600061041786610f94565b90506000356001600160e01b031990811690821614156104a45760405162461bcd60e51b815260206004820152603d60248201527f66756e6374696f6e5369676e61747572652063616e206e6f74206265206f662060448201527f657865637574654d6574615472616e73616374696f6e206d6574686f6400000060648201526084015b60405180910390fd5b604080516060810182526001600160a01b038916600081815260026020908152908490205483528201529081018790526104e18882888888610fb0565b6105375760405162461bcd60e51b815260206004820152602160248201527f5369676e657220616e64207369676e617475726520646f206e6f74206d6174636044820152600d60fb1b606482015260840161049b565b6001600160a01b03881660009081526002602052604090205461055b906001611789565b6001600160a01b0389166000908152600260209081526040808320939093559151909182913091610590918c918e9101611645565b60408051601f19818403018152908290526105aa91611629565b6000604051808303816000865af19150503d80600081146105e7576040519150601f19603f3d011682016040523d82523d6000602084013e6105ec565b606091505b50915091508161063e5760405162461bcd60e51b815260206004820152601c60248201527f46756e6374696f6e2063616c6c206e6f74207375636365737366756c00000000604482015260640161049b565b7f5845892132946850460bff5a0083f71031bc5bf9aadcd40f1de79423eac9b10b8a338b604051610671939291906116bb565b60405180910390a19998505050505050505050565b6000546001600160a01b031633146106b05760405162461bcd60e51b815260040161049b90611754565b6001600160a01b03919091166000908152600b60205260409020805460ff1916911515919091179055565b60405180606001604052806036815260200161189b6036913981565b6000546001600160a01b031633146107215760405162461bcd60e51b815260040161049b90611754565b61072b600061108c565b565b60006064600a5461073e91906117a1565b6107509067016345785d8a00006117b5565b6107629067016345785d8a0000611789565b905090565b60006109c4600a54111561077d57506000919050565b600480546040805163b4bd9e2760e01b815290516001600160a01b039092169263b4bd9e27928282019260209290829003018186803b1580156107bf57600080fd5b505afa1580156107d3573d6000803e3d6000fd5b505050506040513d601f19601f820116820180604052508101906107f791906115a5565b1561080457506000919050565b6004805460408051639263592360e01b815290516001600160a01b03909216926392635923928282019260209290829003018186803b15801561084657600080fd5b505afa15801561085a573d6000803e3d6000fd5b505050506040513d601f19601f8201168201806040525081019061087e91906115d9565b63ffffffff1642101561093d576001600160a01b0382166000908152600b602052604090205460ff161561093557600654604051621340e760e21b81526001600160a01b0384811660048301526005921690624d039c9060240160206040518083038186803b1580156108f057600080fd5b505afa158015610904573d6000803e3d6000fd5b505050506040513d601f19601f8201168201806040525081019061092891906115d9565b63ffffffff161092915050565b506000919050565b506001919050565b919050565b6002600354141561099d5760405162461bcd60e51b815260206004820152601f60248201527f5265656e7472616e637947756172643a207265656e7472616e742063616c6c00604482015260640161049b565b60026003556109ab83610767565b6109f75760405162461bcd60e51b815260206004820152601e60248201527f52616262697443617463684d61737465723a2043616e6e6f74204d696e740000604482015260640161049b565b6109ff61072d565b3414610a595760405162461bcd60e51b8152602060048201526024808201527f52616262697443617463684d61737465723a20496e76616c696420424e422056604482015263616c756560e01b606482015260840161049b565b600954604080516060810190915260368082526001600160a01b039092169163056b01ce919061189b6020830139610a9e600a546001610a999190611789565b6110dc565b604051602001610aaf92919061167c565b60405160208183030381529060405260036040518363ffffffff1660e01b8152600401610add929190611732565b600060405180830381600087803b158015610af757600080fd5b505af1158015610b0b573d6000803e3d6000fd5b5050600954604080516318160ddd60e01b815290516001600160a01b0390921693506342842e0e92503091879160019186916318160ddd916004808301926020929190829003018186803b158015610b6257600080fd5b505afa158015610b76573d6000803e3d6000fd5b505050506040513d601f19601f82011682018060405250810190610b9a91906115c1565b610ba491906117d4565b6040516001600160e01b031960e086901b1681526001600160a01b0393841660048201529290911660248301526044820152606401600060405180830381600087803b158015610bf357600080fd5b505af1158015610c07573d6000803e3d6000fd5b505050506000600a34610c1a91906117a1565b6004805460405163235c50a160e11b81526001600160a01b038881169382019390935292935016906346b8a1429083906024016000604051808303818588803b158015610c6657600080fd5b505af1158015610c7a573d6000803e3d6000fd5b5050508315801592509050610d0c575060055460405163951f18ab60e01b81526001600160a01b039091169063951f18ab90610cbc9086908690600401611703565b60206040518083038186803b158015610cd457600080fd5b505afa158015610ce8573d6000803e3d6000fd5b505050506040513d601f19601f82011682018060405250810190610d0c91906115a5565b15610d785760055460405163e5de1e1f60e01b81526001600160a01b039091169063e5de1e1f908390610d459087908790600401611703565b6000604051808303818588803b158015610d5e57600080fd5b505af1158015610d72573d6000803e3d6000fd5b50505050505b600654604051632f5d525960e21b81526001600160a01b038681166004830152600160248301529091169063bd7549649083906044016000604051808303818588803b158015610dc757600080fd5b505af1158015610ddb573d6000803e3d6000fd5b5050505050600760009054906101000a90046001600160a01b03166001600160a01b0316631b7101e2826040518263ffffffff1660e01b81526004016000604051808303818588803b158015610e3057600080fd5b505af1158015610e44573d6000803e3d6000fd5b5050505050600860009054906101000a90046001600160a01b03166001600160a01b0316631b7101e2826040518263ffffffff1660e01b81526004016000604051808303818588803b158015610e9957600080fd5b505af1158015610ead573d6000803e3d6000fd5b5050600a80549350915060009050610ec48361181b565b9190505550610eee47610edf6000546001600160a01b031690565b6001600160a01b0316906111fe565b505060016003555050565b6000546001600160a01b03163314610f235760405162461bcd60e51b815260040161049b90611754565b6001600160a01b038116610f885760405162461bcd60e51b815260206004820152602660248201527f4f776e61626c653a206e6577206f776e657220697320746865207a65726f206160448201526564647265737360d01b606482015260840161049b565b610f918161108c565b50565b6000815160001415610fa857506000919050565b506020015190565b6000806001610fc6610fc18861131c565b611399565b6040805160008152602081018083529290925260ff861690820152606081018790526080810186905260a0016020604051602081039080840390855afa158015611014573d6000803e3d6000fd5b5050604051601f1901519150506001600160a01b03811661106b5760405162461bcd60e51b8152602060048201526011602482015270496e76616c6964207369676e617475726560781b604482015260640161049b565b866001600160a01b0316816001600160a01b03161491505095945050505050565b600080546001600160a01b038381166001600160a01b0319831681178455604051919092169283917f8be0079c531659141344cd1fd0a4f28419497f9722a3daafe3b4186f6b6457e09190a35050565b6060816111005750506040805180820190915260018152600360fc1b602082015290565b8160005b811561112a57806111148161181b565b91506111239050600a836117a1565b9150611104565b60008167ffffffffffffffff81111561115357634e487b7160e01b600052604160045260246000fd5b6040519080825280601f01601f19166020018201604052801561117d576020820181803683370190505b5090505b84156111f6576111926001836117d4565b915061119f600a86611836565b6111aa906030611789565b60f81b8183815181106111cd57634e487b7160e01b600052603260045260246000fd5b60200101906001600160f81b031916908160001a9053506111ef600a866117a1565b9450611181565b949350505050565b8047101561124e5760405162461bcd60e51b815260206004820152601d60248201527f416464726573733a20696e73756666696369656e742062616c616e6365000000604482015260640161049b565b6000826001600160a01b03168260405160006040518083038185875af1925050503d806000811461129b576040519150601f19603f3d011682016040523d82523d6000602084013e6112a0565b606091505b50509050806113175760405162461bcd60e51b815260206004820152603a60248201527f416464726573733a20756e61626c6520746f2073656e642076616c75652c207260448201527f6563697069656e74206d61792068617665207265766572746564000000000000606482015260840161049b565b505050565b60006040518060800160405280604381526020016118d1604391398051602091820120835184830151604080870151805190860120905161137c950193845260208401929092526001600160a01b03166040830152606082015260800190565b604051602081830303815290604052805190602001209050919050565b60006113a460015490565b60405161190160f01b602082015260228101919091526042810183905260620161137c565b80356001600160a01b038116811461094557600080fd5b803560ff8116811461094557600080fd5b600060208284031215611402578081fd5b61140b826113c9565b9392505050565b60008060408385031215611424578081fd5b61142d836113c9565b9150602083013561143d8161188c565b809150509250929050565b600080600080600060a0868803121561145f578081fd5b611468866113c9565b9450602086013567ffffffffffffffff80821115611484578283fd5b818801915088601f830112611497578283fd5b8135818111156114a9576114a9611876565b604051601f8201601f19908116603f011681019083821181831017156114d1576114d1611876565b816040528281528b60208487010111156114e9578586fd5b826020860160208301379182016020018590525095505050604086013592506060860135915061151b608087016113e0565b90509295509295909350565b60008060006040848603121561153b578283fd5b611544846113c9565b9250602084013567ffffffffffffffff80821115611560578384fd5b818601915086601f830112611573578384fd5b813581811115611581578485fd5b876020828501011115611592578485fd5b6020830194508093505050509250925092565b6000602082840312156115b6578081fd5b815161140b8161188c565b6000602082840312156115d2578081fd5b5051919050565b6000602082840312156115ea578081fd5b815163ffffffff8116811461140b578182fd5b600081518084526116158160208601602086016117eb565b601f01601f19169290920160200192915050565b6000825161163b8184602087016117eb565b9190910192915050565b600083516116578184602088016117eb565b60609390931b6bffffffffffffffffffffffff19169190920190815260140192915050565b6000835161168e8184602088016117eb565b8351908301906116a28183602088016117eb565b64173539b7b760d91b9101908152600501949350505050565b6001600160a01b038481168252831660208201526060604082018190526000906116e7908301846115fd565b95945050505050565b60208152600061140b60208301846115fd565b60208152816020820152818360408301376000818301604090810191909152601f909201601f19160101919050565b60408152600061174560408301856115fd565b90508260208301529392505050565b6020808252818101527f4f776e61626c653a2063616c6c6572206973206e6f7420746865206f776e6572604082015260600190565b6000821982111561179c5761179c61184a565b500190565b6000826117b0576117b0611860565b500490565b60008160001904831182151516156117cf576117cf61184a565b500290565b6000828210156117e6576117e661184a565b500390565b60005b838110156118065781810151838201526020016117ee565b83811115611815576000848401525b50505050565b600060001982141561182f5761182f61184a565b5060010190565b60008261184557611845611860565b500690565b634e487b7160e01b600052601160045260246000fd5b634e487b7160e01b600052601260045260246000fd5b634e487b7160e01b600052604160045260246000fd5b8015158114610f9157600080fdfe697066733a2f2f516d5a6d46346154644b74527a466a35705a75394d76417370446963395a36543131796d6f666e416956374773762f4d6574615472616e73616374696f6e2875696e74323536206e6f6e63652c616464726573732066726f6d2c62797465732066756e6374696f6e5369676e617475726529a26469706673582212203b352e130a0b19374a792c267bed4f8374be12128acc296ec410c29671c2a90664736f6c63430008040033454950373132446f6d61696e28737472696e67206e616d652c737472696e672076657273696f6e2c6164647265737320766572696679696e67436f6e74726163742c627974657333322073616c7429",
  "linkReferences": {},
  "deployedLinkReferences": {}
}