{
  "_format": "hh-sol-artifact-1",
  "contractName": "RabbitCreed",
  "sourceName": "contracts/RabbitCreed.sol",
  "abi": [
    {
      "inputs": [],
      "stateMutability": "nonpayable",
      "type": "constructor"
    },
    {
      "anonymous": false,
      "inputs": [
        {
          "indexed": false,
          "internalType": "address",
          "name": "userAddress",
          "type": "address"
        },
        {
          "indexed": false,
          "internalType": "address payable",
          "name": "relayerAddress",
          "type": "address"
        },
        {
          "indexed": false,
          "internalType": "bytes",
          "name": "functionSignature",
          "type": "bytes"
        }
      ],
      "name": "MetaTransactionExecuted",
      "type": "event"
    },
    {
      "inputs": [
        {
          "internalType": "address",
          "name": "",
          "type": "address"
        }
      ],
      "name": "accountToCode",
      "outputs": [
        {
          "internalType": "string",
          "name": "",
          "type": "string"
        }
      ],
      "stateMutability": "view",
      "type": "function"
    },
    {
      "inputs": [
        {
          "internalType": "string",
          "name": "_code",
          "type": "string"
        }
      ],
      "name": "addRewards",
      "outputs": [],
      "stateMutability": "payable",
      "type": "function"
    },
    {
      "inputs": [
        {
          "internalType": "string",
          "name": "",
          "type": "string"
        }
      ],
      "name": "codeToAccount",
      "outputs": [
        {
          "internalType": "address",
          "name": "",
          "type": "address"
        }
      ],
      "stateMutability": "view",
      "type": "function"
    },
    {
      "inputs": [
        {
          "internalType": "address",
          "name": "userAddress",
          "type": "address"
        },
        {
          "internalType": "bytes",
          "name": "functionSignature",
          "type": "bytes"
        },
        {
          "internalType": "bytes32",
          "name": "sigR",
          "type": "bytes32"
        },
        {
          "internalType": "bytes32",
          "name": "sigS",
          "type": "bytes32"
        },
        {
          "internalType": "uint8",
          "name": "sigV",
          "type": "uint8"
        }
      ],
      "name": "executeMetaTransaction",
      "outputs": [
        {
          "internalType": "bytes",
          "name": "",
          "type": "bytes"
        }
      ],
      "stateMutability": "payable",
      "type": "function"
    },
    {
      "inputs": [
        {
          "internalType": "address",
          "name": "user",
          "type": "address"
        }
      ],
      "name": "getNonce",
      "outputs": [
        {
          "internalType": "uint256",
          "name": "nonce",
          "type": "uint256"
        }
      ],
      "stateMutability": "view",
      "type": "function"
    },
    {
      "inputs": [
        {
          "internalType": "string",
          "name": "_code",
          "type": "string"
        }
      ],
      "name": "isCodeRegistered",
      "outputs": [
        {
          "internalType": "bool",
          "name": "",
          "type": "bool"
        }
      ],
      "stateMutability": "view",
      "type": "function"
    },
    {
      "inputs": [
        {
          "internalType": "string",
          "name": "_code",
          "type": "string"
        }
      ],
      "name": "isValidNewCode",
      "outputs": [
        {
          "internalType": "bool",
          "name": "",
          "type": "bool"
        }
      ],
      "stateMutability": "view",
      "type": "function"
    },
    {
      "inputs": [
        {
          "internalType": "address",
          "name": "dest",
          "type": "address"
        }
      ],
      "name": "payments",
      "outputs": [
        {
          "internalType": "uint256",
          "name": "",
          "type": "uint256"
        }
      ],
      "stateMutability": "view",
      "type": "function"
    },
    {
      "inputs": [
        {
          "internalType": "string",
          "name": "_code",
          "type": "string"
        }
      ],
      "name": "register",
      "outputs": [],
      "stateMutability": "nonpayable",
      "type": "function"
    },
    {
      "inputs": [
        {
          "internalType": "address",
          "name": "",
          "type": "address"
        }
      ],
      "name": "rewards",
      "outputs": [
        {
          "internalType": "uint256",
          "name": "",
          "type": "uint256"
        }
      ],
      "stateMutability": "view",
      "type": "function"
    },
    {
      "inputs": [],
      "name": "unregister",
      "outputs": [],
      "stateMutability": "nonpayable",
      "type": "function"
    },
    {
      "inputs": [
        {
          "internalType": "address payable",
          "name": "payee",
          "type": "address"
        }
      ],
      "name": "withdrawPayments",
      "outputs": [],
      "stateMutability": "nonpayable",
      "type": "function"
    }
  ],
  "bytecode": "0x60a060405234801561001057600080fd5b506040518060400160405280601881526020017f4052616262697443617463682f52616262697443726565640000000000000000815250604051806040016040528060058152602001640312e302e360dc1b81525081816040518060800160405280604f8152602001611875604f91398051906020012082805190602001208280519060200120306100a661013460201b60201c565b60408051602081019690965285019390935260608401919091526001600160a01b0316608083015260a082015260c001604051602081830303815290604052805190602001206000819055505050505060405161010290610138565b604051809103906000f08015801561011e573d6000803e3d6000fd5b5060601b6001600160601b031916608052610145565b4690565b6105ef8061128683390190565b60805160601c611115610171600039600081816105cb015281816106a10152610a3e01526111156000f3fe6080604052600436106100a75760003560e01c8063951f18ab11610064578063951f18ab146101b4578063e2982c21146101d4578063e5de1e1f146101f4578063e79a198f14610207578063f2c298be1461021c578063f44d71941461023c57600080fd5b80630700037d146100ac5780630c53c51c146100ec5780632c0e7b0e1461010c5780632d0335ab1461012c57806331b3eb94146101625780634dc1536214610184575b600080fd5b3480156100b857600080fd5b506100d96100c7366004610cec565b60046020526000908152604090205481565b6040519081526020015b60405180910390f35b6100ff6100fa366004610d0f565b610295565b6040516100e39190610fcf565b34801561011857600080fd5b506100ff610127366004610cec565b610512565b34801561013857600080fd5b506100d9610147366004610cec565b6001600160a01b031660009081526001602052604090205490565b34801561016e57600080fd5b5061018261017d366004610cec565b6105ac565b005b34801561019057600080fd5b506101a461019f366004610d9d565b61062a565b60405190151581526020016100e3565b3480156101c057600080fd5b506101a46101cf366004610d9d565b61063e565b3480156101e057600080fd5b506100d96101ef366004610cec565b61067f565b610182610202366004610d9d565b610723565b34801561021357600080fd5b506101826107b1565b34801561022857600080fd5b50610182610237366004610d9d565b610849565b34801561024857600080fd5b5061027d610257366004610e0a565b80516020818301810180516002825292820191909301209152546001600160a01b031681565b6040516001600160a01b0390911681526020016100e3565b606060006102a286610927565b90506000356001600160e01b0319908116908216141561032f5760405162461bcd60e51b815260206004820152603d60248201527f66756e6374696f6e5369676e61747572652063616e206e6f74206265206f662060448201527f657865637574654d6574615472616e73616374696f6e206d6574686f6400000060648201526084015b60405180910390fd5b604080516060810182526001600160a01b0389166000818152600160209081529084902054835282015290810187905261036c8882888888610943565b6103c25760405162461bcd60e51b815260206004820152602160248201527f5369676e657220616e64207369676e617475726520646f206e6f74206d6174636044820152600d60fb1b6064820152608401610326565b6001600160a01b0388166000908152600160208190526040909120546103e791610fe2565b6001600160a01b038916600090815260016020908152604080832093909355915190918291309161041c918c918e9101610eb8565b60408051601f198184030181529082905261043691610e9c565b6000604051808303816000865af19150503d8060008114610473576040519150601f19603f3d011682016040523d82523d6000602084013e610478565b606091505b5091509150816104ca5760405162461bcd60e51b815260206004820152601c60248201527f46756e6374696f6e2063616c6c206e6f74207375636365737366756c000000006044820152606401610326565b7f5845892132946850460bff5a0083f71031bc5bf9aadcd40f1de79423eac9b10b8a338b6040516104fd93929190610f9a565b60405180910390a19998505050505050505050565b6003602052600090815260409020805461052b90611036565b80601f016020809104026020016040519081016040528092919081815260200182805461055790611036565b80156105a45780601f10610579576101008083540402835291602001916105a4565b820191906000526020600020905b81548152906001019060200180831161058757829003601f168201915b505050505081565b6040516351cff8d960e01b81526001600160a01b0382811660048301527f000000000000000000000000000000000000000000000000000000000000000016906351cff8d990602401600060405180830381600087803b15801561060f57600080fd5b505af1158015610623573d6000803e3d6000fd5b5050505050565b6000610636838361063e565b159392505050565b6000806001600160a01b03166002848460405161065c929190610eef565b908152604051908190036020019020546001600160a01b03161415905092915050565b6040516371d4ed8d60e11b81526001600160a01b0382811660048301526000917f00000000000000000000000000000000000000000000000000000000000000009091169063e3a9db1a9060240160206040518083038186803b1580156106e557600080fd5b505afa1580156106f9573d6000803e3d6000fd5b505050506040513d601f19601f8201168201806040525081019061071d9190610e58565b92915050565b61072d828261063e565b6107795760405162461bcd60e51b815260206004820181905260248201527f52616262697443726565643a20436f6465206e6f7420726567697374657265646044820152606401610326565b6107ad6002838360405161078e929190610eef565b908152604051908190036020019020546001600160a01b031647610a1f565b5050565b6000600360006107bf610aa0565b6001600160a01b03166001600160a01b0316815260200190815260200160002090506002816040516107f19190610eff565b90815260405190819003602001902080546001600160a01b03191690556003600061081a610aa0565b6001600160a01b03166001600160a01b0316815260200190815260200160002060006108469190610ba3565b50565b610853828261062a565b61089f5760405162461bcd60e51b815260206004820152601f60248201527f52616262697443726565643a204e6f742076616c6964206e657720636f6465006044820152606401610326565b6108a76107b1565b6108af610aa0565b600283836040516108c1929190610eef565b90815260405190819003602001902080546001600160a01b03929092166001600160a01b03199092169190911790558181600360006108fe610aa0565b6001600160a01b031681526020810191909152604001600020610922929091610bdd565b505050565b600081516000141561093b57506000919050565b506020015190565b600080600161095961095488610afd565b610b7a565b6040805160008152602081018083529290925260ff861690820152606081018790526080810186905260a0016020604051602081039080840390855afa1580156109a7573d6000803e3d6000fd5b5050604051601f1901519150506001600160a01b0381166109fe5760405162461bcd60e51b8152602060048201526011602482015270496e76616c6964207369676e617475726560781b6044820152606401610326565b866001600160a01b0316816001600160a01b03161491505095945050505050565b60405163f340fa0160e01b81526001600160a01b0383811660048301527f0000000000000000000000000000000000000000000000000000000000000000169063f340fa019083906024016000604051808303818588803b158015610a8357600080fd5b505af1158015610a97573d6000803e3d6000fd5b50505050505050565b600033301415610af757600080368080601f0160208091040260200160405190810160405280939291908181526020018383808284376000920191909152505050503601516001600160a01b03169150610afa9050565b50335b90565b600060405180608001604052806043815260200161109d6043913980516020918201208351848301516040808701518051908601209051610b5d950193845260208401929092526001600160a01b03166040830152606082015260800190565b604051602081830303815290604052805190602001209050919050565b6000805460405161190160f01b6020820152602281019190915260428101839052606201610b5d565b508054610baf90611036565b6000825580601f10610bbf575050565b601f0160209004906000526020600020908101906108469190610c61565b828054610be990611036565b90600052602060002090601f016020900481019282610c0b5760008555610c51565b82601f10610c245782800160ff19823516178555610c51565b82800160010185558215610c51579182015b82811115610c51578235825591602001919060010190610c36565b50610c5d929150610c61565b5090565b5b80821115610c5d5760008155600101610c62565b600067ffffffffffffffff80841115610c9157610c91611071565b604051601f8501601f19908116603f01168101908282118183101715610cb957610cb9611071565b81604052809350858152868686011115610cd257600080fd5b858560208301376000602087830101525050509392505050565b600060208284031215610cfd578081fd5b8135610d0881611087565b9392505050565b600080600080600060a08688031215610d26578081fd5b8535610d3181611087565b9450602086013567ffffffffffffffff811115610d4c578182fd5b8601601f81018813610d5c578182fd5b610d6b88823560208401610c76565b9450506040860135925060608601359150608086013560ff81168114610d8f578182fd5b809150509295509295909350565b60008060208385031215610daf578182fd5b823567ffffffffffffffff80821115610dc6578384fd5b818501915085601f830112610dd9578384fd5b813581811115610de7578485fd5b866020828501011115610df8578485fd5b60209290920196919550909350505050565b600060208284031215610e1b578081fd5b813567ffffffffffffffff811115610e31578182fd5b8201601f81018413610e41578182fd5b610e5084823560208401610c76565b949350505050565b600060208284031215610e69578081fd5b5051919050565b60008151808452610e88816020860160208601611006565b601f01601f19169290920160200192915050565b60008251610eae818460208701611006565b9190910192915050565b60008351610eca818460208801611006565b60609390931b6bffffffffffffffffffffffff19169190920190815260140192915050565b8183823760009101908152919050565b600080835482600182811c915080831680610f1b57607f831692505b6020808410821415610f3b57634e487b7160e01b87526022600452602487fd5b818015610f4f5760018114610f6057610f8c565b60ff19861689528489019650610f8c565b60008a815260209020885b86811015610f845781548b820152908501908301610f6b565b505084890196505b509498975050505050505050565b6001600160a01b03848116825283166020820152606060408201819052600090610fc690830184610e70565b95945050505050565b602081526000610d086020830184610e70565b6000821982111561100157634e487b7160e01b81526011600452602481fd5b500190565b60005b83811015611021578181015183820152602001611009565b83811115611030576000848401525b50505050565b600181811c9082168061104a57607f821691505b6020821081141561106b57634e487b7160e01b600052602260045260246000fd5b50919050565b634e487b7160e01b600052604160045260246000fd5b6001600160a01b038116811461084657600080fdfe4d6574615472616e73616374696f6e2875696e74323536206e6f6e63652c616464726573732066726f6d2c62797465732066756e6374696f6e5369676e617475726529a2646970667358221220fdd55544ccbbe37bb33dcc96c49c5024c03ab3f47ab8bd799f374c799200d3a764736f6c63430008040033608060405234801561001057600080fd5b5061001a3361001f565b61006f565b600080546001600160a01b038381166001600160a01b0319831681178455604051919092169283917f8be0079c531659141344cd1fd0a4f28419497f9722a3daafe3b4186f6b6457e09190a35050565b6105718061007e6000396000f3fe6080604052600436106100555760003560e01c806351cff8d91461005a578063715018a61461007c5780638da5cb5b14610091578063e3a9db1a146100be578063f2fde38b14610102578063f340fa0114610122575b600080fd5b34801561006657600080fd5b5061007a6100753660046104aa565b610135565b005b34801561008857600080fd5b5061007a6101d7565b34801561009d57600080fd5b506000546040516001600160a01b0390911681526020015b60405180910390f35b3480156100ca57600080fd5b506100f46100d93660046104aa565b6001600160a01b031660009081526001602052604090205490565b6040519081526020016100b5565b34801561010e57600080fd5b5061007a61011d3660046104aa565b61020d565b61007a6101303660046104aa565b6102a8565b6000546001600160a01b031633146101685760405162461bcd60e51b815260040161015f906104cd565b60405180910390fd5b6001600160a01b0381166000818152600160205260408120805491905590610190908261033c565b816001600160a01b03167f7084f5476618d8e60b11ef0d7d3f06914655adb8793e28ff7f018d4c76d505d5826040516101cb91815260200190565b60405180910390a25050565b6000546001600160a01b031633146102015760405162461bcd60e51b815260040161015f906104cd565b61020b600061045a565b565b6000546001600160a01b031633146102375760405162461bcd60e51b815260040161015f906104cd565b6001600160a01b03811661029c5760405162461bcd60e51b815260206004820152602660248201527f4f776e61626c653a206e6577206f776e657220697320746865207a65726f206160448201526564647265737360d01b606482015260840161015f565b6102a58161045a565b50565b6000546001600160a01b031633146102d25760405162461bcd60e51b815260040161015f906104cd565b6001600160a01b0381166000908152600160205260408120805434928392916102fc908490610502565b90915550506040518181526001600160a01b038316907f2da466a7b24304f47e87fa2e1e5a81b9831ce54fec19055ce277ca2f39ba42c4906020016101cb565b8047101561038c5760405162461bcd60e51b815260206004820152601d60248201527f416464726573733a20696e73756666696369656e742062616c616e6365000000604482015260640161015f565b6000826001600160a01b03168260405160006040518083038185875af1925050503d80600081146103d9576040519150601f19603f3d011682016040523d82523d6000602084013e6103de565b606091505b50509050806104555760405162461bcd60e51b815260206004820152603a60248201527f416464726573733a20756e61626c6520746f2073656e642076616c75652c207260448201527f6563697069656e74206d61792068617665207265766572746564000000000000606482015260840161015f565b505050565b600080546001600160a01b038381166001600160a01b0319831681178455604051919092169283917f8be0079c531659141344cd1fd0a4f28419497f9722a3daafe3b4186f6b6457e09190a35050565b6000602082840312156104bb578081fd5b81356104c681610526565b9392505050565b6020808252818101527f4f776e61626c653a2063616c6c6572206973206e6f7420746865206f776e6572604082015260600190565b6000821982111561052157634e487b7160e01b81526011600452602481fd5b500190565b6001600160a01b03811681146102a557600080fdfea264697066735822122088702fd4ddcea429b86ffcb261f544be05e79d5fd7b90a9f3a7ecefbe3b90e2c64736f6c63430008040033454950373132446f6d61696e28737472696e67206e616d652c737472696e672076657273696f6e2c6164647265737320766572696679696e67436f6e74726163742c627974657333322073616c7429",
  "linkReferences": {},
  "deployedLinkReferences": {}
}