{
  "_format": "hh-sol-artifact-1",
  "contractName": "RabbitRocket",
  "sourceName": "contracts/RabbitRocket.sol",
  "abi": [
    {
      "inputs": [
        {
          "internalType": "uint32",
          "name": "_startEpoch",
          "type": "uint32"
        },
        {
          "internalType": "uint32",
          "name": "_whitelistEndEpoch",
          "type": "uint32"
        },
        {
          "internalType": "uint32",
          "name": "_countdownSeconds",
          "type": "uint32"
        }
      ],
      "stateMutability": "nonpayable",
      "type": "constructor"
    },
    {
      "anonymous": false,
      "inputs": [
        {
          "indexed": false,
          "internalType": "address",
          "name": "userAddress",
          "type": "address"
        },
        {
          "indexed": false,
          "internalType": "address payable",
          "name": "relayerAddress",
          "type": "address"
        },
        {
          "indexed": false,
          "internalType": "bytes",
          "name": "functionSignature",
          "type": "bytes"
        }
      ],
      "name": "MetaTransactionExecuted",
      "type": "event"
    },
    {
      "anonymous": false,
      "inputs": [
        {
          "indexed": true,
          "internalType": "address",
          "name": "previousOwner",
          "type": "address"
        },
        {
          "indexed": true,
          "internalType": "address",
          "name": "newOwner",
          "type": "address"
        }
      ],
      "name": "OwnershipTransferred",
      "type": "event"
    },
    {
      "anonymous": false,
      "inputs": [
        {
          "indexed": true,
          "internalType": "bytes32",
          "name": "role",
          "type": "bytes32"
        },
        {
          "indexed": true,
          "internalType": "bytes32",
          "name": "previousAdminRole",
          "type": "bytes32"
        },
        {
          "indexed": true,
          "internalType": "bytes32",
          "name": "newAdminRole",
          "type": "bytes32"
        }
      ],
      "name": "RoleAdminChanged",
      "type": "event"
    },
    {
      "anonymous": false,
      "inputs": [
        {
          "indexed": true,
          "internalType": "bytes32",
          "name": "role",
          "type": "bytes32"
        },
        {
          "indexed": true,
          "internalType": "address",
          "name": "account",
          "type": "address"
        },
        {
          "indexed": true,
          "internalType": "address",
          "name": "sender",
          "type": "address"
        }
      ],
      "name": "RoleGranted",
      "type": "event"
    },
    {
      "anonymous": false,
      "inputs": [
        {
          "indexed": true,
          "internalType": "bytes32",
          "name": "role",
          "type": "bytes32"
        },
        {
          "indexed": true,
          "internalType": "address",
          "name": "account",
          "type": "address"
        },
        {
          "indexed": true,
          "internalType": "address",
          "name": "sender",
          "type": "address"
        }
      ],
      "name": "RoleRevoked",
      "type": "event"
    },
    {
      "inputs": [],
      "name": "DEFAULT_ADMIN_ROLE",
      "outputs": [
        {
          "internalType": "bytes32",
          "name": "",
          "type": "bytes32"
        }
      ],
      "stateMutability": "view",
      "type": "function"
    },
    {
      "inputs": [],
      "name": "MASTER_ROLE",
      "outputs": [
        {
          "internalType": "bytes32",
          "name": "",
          "type": "bytes32"
        }
      ],
      "stateMutability": "view",
      "type": "function"
    },
    {
      "inputs": [],
      "name": "countdownSeconds",
      "outputs": [
        {
          "internalType": "uint32",
          "name": "",
          "type": "uint32"
        }
      ],
      "stateMutability": "view",
      "type": "function"
    },
    {
      "inputs": [],
      "name": "endEpoch",
      "outputs": [
        {
          "internalType": "uint32",
          "name": "",
          "type": "uint32"
        }
      ],
      "stateMutability": "view",
      "type": "function"
    },
    {
      "inputs": [
        {
          "internalType": "address",
          "name": "_winner",
          "type": "address"
        }
      ],
      "name": "endGameNow",
      "outputs": [],
      "stateMutability": "payable",
      "type": "function"
    },
    {
      "inputs": [],
      "name": "endGameOverride",
      "outputs": [
        {
          "internalType": "bool",
          "name": "",
          "type": "bool"
        }
      ],
      "stateMutability": "view",
      "type": "function"
    },
    {
      "inputs": [
        {
          "internalType": "address",
          "name": "userAddress",
          "type": "address"
        },
        {
          "internalType": "bytes",
          "name": "functionSignature",
          "type": "bytes"
        },
        {
          "internalType": "bytes32",
          "name": "sigR",
          "type": "bytes32"
        },
        {
          "internalType": "bytes32",
          "name": "sigS",
          "type": "bytes32"
        },
        {
          "internalType": "uint8",
          "name": "sigV",
          "type": "uint8"
        }
      ],
      "name": "executeMetaTransaction",
      "outputs": [
        {
          "internalType": "bytes",
          "name": "",
          "type": "bytes"
        }
      ],
      "stateMutability": "payable",
      "type": "function"
    },
    {
      "inputs": [
        {
          "internalType": "uint32",
          "name": "_startEpoch",
          "type": "uint32"
        },
        {
          "internalType": "uint32",
          "name": "_whitelistEndEpoch",
          "type": "uint32"
        },
        {
          "internalType": "uint32",
          "name": "_countdownSeconds",
          "type": "uint32"
        },
        {
          "internalType": "uint32",
          "name": "_endEpoch",
          "type": "uint32"
        },
        {
          "internalType": "address",
          "name": "_lastBuyer",
          "type": "address"
        },
        {
          "internalType": "bool",
          "name": "_endGameOverride",
          "type": "bool"
        }
      ],
      "name": "fix",
      "outputs": [],
      "stateMutability": "nonpayable",
      "type": "function"
    },
    {
      "inputs": [
        {
          "internalType": "address",
          "name": "user",
          "type": "address"
        }
      ],
      "name": "getNonce",
      "outputs": [
        {
          "internalType": "uint256",
          "name": "nonce",
          "type": "uint256"
        }
      ],
      "stateMutability": "view",
      "type": "function"
    },
    {
      "inputs": [
        {
          "internalType": "bytes32",
          "name": "role",
          "type": "bytes32"
        }
      ],
      "name": "getRoleAdmin",
      "outputs": [
        {
          "internalType": "bytes32",
          "name": "",
          "type": "bytes32"
        }
      ],
      "stateMutability": "view",
      "type": "function"
    },
    {
      "inputs": [
        {
          "internalType": "bytes32",
          "name": "role",
          "type": "bytes32"
        },
        {
          "internalType": "uint256",
          "name": "index",
          "type": "uint256"
        }
      ],
      "name": "getRoleMember",
      "outputs": [
        {
          "internalType": "address",
          "name": "",
          "type": "address"
        }
      ],
      "stateMutability": "view",
      "type": "function"
    },
    {
      "inputs": [
        {
          "internalType": "bytes32",
          "name": "role",
          "type": "bytes32"
        }
      ],
      "name": "getRoleMemberCount",
      "outputs": [
        {
          "internalType": "uint256",
          "name": "",
          "type": "uint256"
        }
      ],
      "stateMutability": "view",
      "type": "function"
    },
    {
      "inputs": [
        {
          "internalType": "bytes32",
          "name": "role",
          "type": "bytes32"
        },
        {
          "internalType": "address",
          "name": "account",
          "type": "address"
        }
      ],
      "name": "grantRole",
      "outputs": [],
      "stateMutability": "nonpayable",
      "type": "function"
    },
    {
      "inputs": [
        {
          "internalType": "bytes32",
          "name": "role",
          "type": "bytes32"
        },
        {
          "internalType": "address",
          "name": "account",
          "type": "address"
        }
      ],
      "name": "hasRole",
      "outputs": [
        {
          "internalType": "bool",
          "name": "",
          "type": "bool"
        }
      ],
      "stateMutability": "view",
      "type": "function"
    },
    {
      "inputs": [],
      "name": "isOver",
      "outputs": [
        {
          "internalType": "bool",
          "name": "isOver_",
          "type": "bool"
        }
      ],
      "stateMutability": "view",
      "type": "function"
    },
    {
      "inputs": [],
      "name": "isStarted",
      "outputs": [
        {
          "internalType": "bool",
          "name": "isOver_",
          "type": "bool"
        }
      ],
      "stateMutability": "view",
      "type": "function"
    },
    {
      "inputs": [],
      "name": "isWhitelistOnly",
      "outputs": [
        {
          "internalType": "bool",
          "name": "isWhitelistOnly_",
          "type": "bool"
        }
      ],
      "stateMutability": "view",
      "type": "function"
    },
    {
      "inputs": [],
      "name": "lastBuyer",
      "outputs": [
        {
          "internalType": "address",
          "name": "",
          "type": "address"
        }
      ],
      "stateMutability": "view",
      "type": "function"
    },
    {
      "inputs": [],
      "name": "owner",
      "outputs": [
        {
          "internalType": "address",
          "name": "",
          "type": "address"
        }
      ],
      "stateMutability": "view",
      "type": "function"
    },
    {
      "inputs": [
        {
          "internalType": "address",
          "name": "dest",
          "type": "address"
        }
      ],
      "name": "payments",
      "outputs": [
        {
          "internalType": "uint256",
          "name": "",
          "type": "uint256"
        }
      ],
      "stateMutability": "view",
      "type": "function"
    },
    {
      "inputs": [],
      "name": "renounceOwnership",
      "outputs": [],
      "stateMutability": "nonpayable",
      "type": "function"
    },
    {
      "inputs": [
        {
          "internalType": "bytes32",
          "name": "role",
          "type": "bytes32"
        },
        {
          "internalType": "address",
          "name": "account",
          "type": "address"
        }
      ],
      "name": "renounceRole",
      "outputs": [],
      "stateMutability": "nonpayable",
      "type": "function"
    },
    {
      "inputs": [
        {
          "internalType": "bytes32",
          "name": "role",
          "type": "bytes32"
        },
        {
          "internalType": "address",
          "name": "account",
          "type": "address"
        }
      ],
      "name": "revokeRole",
      "outputs": [],
      "stateMutability": "nonpayable",
      "type": "function"
    },
    {
      "inputs": [],
      "name": "sendRewards",
      "outputs": [],
      "stateMutability": "nonpayable",
      "type": "function"
    },
    {
      "inputs": [
        {
          "internalType": "uint32",
          "name": "_to",
          "type": "uint32"
        }
      ],
      "name": "setCountdownSeconds",
      "outputs": [],
      "stateMutability": "nonpayable",
      "type": "function"
    },
    {
      "inputs": [
        {
          "internalType": "uint32",
          "name": "_startEpoch",
          "type": "uint32"
        },
        {
          "internalType": "uint32",
          "name": "_whitelistEndEpoch",
          "type": "uint32"
        }
      ],
      "name": "setEpochs",
      "outputs": [],
      "stateMutability": "nonpayable",
      "type": "function"
    },
    {
      "inputs": [],
      "name": "startEpoch",
      "outputs": [
        {
          "internalType": "uint32",
          "name": "",
          "type": "uint32"
        }
      ],
      "stateMutability": "view",
      "type": "function"
    },
    {
      "inputs": [
        {
          "internalType": "bytes4",
          "name": "interfaceId",
          "type": "bytes4"
        }
      ],
      "name": "supportsInterface",
      "outputs": [
        {
          "internalType": "bool",
          "name": "",
          "type": "bool"
        }
      ],
      "stateMutability": "view",
      "type": "function"
    },
    {
      "inputs": [
        {
          "internalType": "address",
          "name": "_buyer",
          "type": "address"
        }
      ],
      "name": "timerReset",
      "outputs": [],
      "stateMutability": "payable",
      "type": "function"
    },
    {
      "inputs": [
        {
          "internalType": "address",
          "name": "newOwner",
          "type": "address"
        }
      ],
      "name": "transferOwnership",
      "outputs": [],
      "stateMutability": "nonpayable",
      "type": "function"
    },
    {
      "inputs": [],
      "name": "whitelistEndEpoch",
      "outputs": [
        {
          "internalType": "uint32",
          "name": "",
          "type": "uint32"
        }
      ],
      "stateMutability": "view",
      "type": "function"
    },
    {
      "inputs": [
        {
          "internalType": "address payable",
          "name": "payee",
          "type": "address"
        }
      ],
      "name": "withdrawPayments",
      "outputs": [],
      "stateMutability": "nonpayable",
      "type": "function"
    }
  ],
  "bytecode": "0x60a06040523480156200001157600080fd5b5060405162002a0538038062002a05833981016040819052620000349162000558565b6040518060400160405280601981526020017f4052616262697443617463682f526162626974526f636b657400000000000000815250604051806040016040528060058152602001640312e302e360dc1b8152508181620000a46200009e620001d760201b60201c565b620001db565b6040518060800160405280604f815260200162002996604f9139805190602001208280519060200120828051906020012030620000e66200022d60201b60201c565b60408051602081019690965285019390935260608401919091526001600160a01b0316608083015260a082015260c0016040516020818303038152906040528051906020012060038190555050505050604051620001449062000530565b604051809103906000f08015801562000161573d6000803e3d6000fd5b5060601b6001600160601b031916608052620001a77f8b8c0776df2c2176edf6f82391c35ea4891146d7a976ee36fd07f1a6fb4ead4c620001a162000231565b62000290565b620001b76000620001a162000231565b620001c281620002a0565b620001ce83836200031e565b505050620005d6565b3390565b600280546001600160a01b038381166001600160a01b0319831681179093556040519116919082907f8be0079c531659141344cd1fd0a4f28419497f9722a3daafe3b4186f6b6457e090600090a35050565b4690565b6000333014156200028a57600080368080601f0160208091040260200160405190810160405280939291908181526020018383808284376000920191909152505050503601516001600160a01b031691506200028d9050565b50335b90565b6200029c8282620003db565b5050565b6002546001600160a01b03163314620002ef5760405162461bcd60e51b81526020600482018190526024820152600080516020620029e583398151915260448201526064015b60405180910390fd5b6005805463ffffffff9092166c010000000000000000000000000263ffffffff60601b19909216919091179055565b6002546001600160a01b03163314620003695760405162461bcd60e51b81526020600482018190526024820152600080516020620029e58339815191526044820152606401620002e6565b6005805463ffffffff8381166401000000009081026001600160401b0319909316828716179290921792839055620003b7926c010000000000000000000000008104821692900416620005a1565b600560086101000a81548163ffffffff021916908363ffffffff1602179055505050565b620003f282826200041e60201b620010201760201c565b600082815260016020908152604090912062000419918390620010a4620004be821b17901c565b505050565b6000828152602081815260408083206001600160a01b038516845290915290205460ff166200029c576000828152602081815260408083206001600160a01b03851684529091529020805460ff191660011790556200047a3390565b6001600160a01b0316816001600160a01b0316837f2f8788117e7eff1d82e926ec794901d17c78024a50270940304540a733656f0d60405160405180910390a45050565b6000620004d5836001600160a01b038416620004de565b90505b92915050565b60008181526001830160205260408120546200052757508154600181810184556000848152602080822090930184905584548482528286019093526040902091909155620004d8565b506000620004d8565b6105ef80620023a783390190565b805163ffffffff811681146200055357600080fd5b919050565b6000806000606084860312156200056d578283fd5b62000578846200053e565b925062000588602085016200053e565b915062000598604085016200053e565b90509250925092565b600063ffffffff808316818516808303821115620005cd57634e487b7160e01b84526011600452602484fd5b01949350505050565b60805160601c611da462000603600039600081816109cb01528181610eb9015261130b0152611da46000f3fe6080604052600436106101e35760003560e01c80638da5cb5b11610102578063b4bd9e2711610095578063dc22486311610064578063dc22486314610597578063e2982c21146105cb578063f2b5c233146105eb578063f2fde38b1461060b57600080fd5b8063b4bd9e271461051e578063ca15c87314610533578063d547741f14610553578063db39a7f61461057357600080fd5b806395cb1b1e116100d157806395cb1b1e146104b65780639d784f82146104cb578063a217fddf146104ec578063a2c8b1771461050157600080fd5b80638da5cb5b146104335780639010d07c1461045157806391d1485414610471578063926359231461049157600080fd5b806331b3eb941161017a57806348fece7c1161014957806348fece7c146103ca578063544736e6146103df57806361902c19146103fe578063715018a61461041e57600080fd5b806331b3eb941461035757806336568abe1461037757806346756b141461039757806346b8a142146103b757600080fd5b80631b1cb5be116101b65780631b1cb5be146102ae578063248a9ca3146102c35780632d0335ab146103015780632f2ff15d1461033757600080fd5b806301ffc9a7146101e85780630b9663db1461021d5780630c53c51c1461025657806313ecfbfa14610276575b600080fd5b3480156101f457600080fd5b506102086102033660046119b3565b61062b565b60405190151581526020015b60405180910390f35b34801561022957600080fd5b5060055461024190600160401b900463ffffffff1681565b60405163ffffffff9091168152602001610214565b61026961026436600461186a565b610656565b6040516102149190611be5565b34801561028257600080fd5b50600654610296906001600160a01b031681565b6040516001600160a01b039091168152602001610214565b6102c16102bc36600461184e565b6108d2565b005b3480156102cf57600080fd5b506102f36102de36600461194b565b60009081526020819052604090206001015490565b604051908152602001610214565b34801561030d57600080fd5b506102f361031c36600461184e565b6001600160a01b031660009081526004602052604090205490565b34801561034357600080fd5b506102c1610352366004611963565b610981565b34801561036357600080fd5b506102c161037236600461184e565b6109ac565b34801561038357600080fd5b506102c1610392366004611963565b610a2a565b3480156103a357600080fd5b506102c16103b2366004611a3f565b610aa8565b6102c16103c536600461184e565b610b74565b3480156103d657600080fd5b50610208610c67565b3480156103eb57600080fd5b506005544263ffffffff90911610610208565b34801561040a57600080fd5b506102c1610419366004611a0d565b610cae565b34801561042a57600080fd5b506102c1610d40565b34801561043f57600080fd5b506002546001600160a01b0316610296565b34801561045d57600080fd5b5061029661046c366004611992565b610d76565b34801561047d57600080fd5b5061020861048c366004611963565b610d95565b34801561049d57600080fd5b5060055461024190640100000000900463ffffffff1681565b3480156104c257600080fd5b506102c1610dbe565b3480156104d757600080fd5b5060055461020890600160801b900460ff1681565b3480156104f857600080fd5b506102f3600081565b34801561050d57600080fd5b506005546102419063ffffffff1681565b34801561052a57600080fd5b50610208610e28565b34801561053f57600080fd5b506102f361054e36600461194b565b610e5a565b34801561055f57600080fd5b506102c161056e366004611963565b610e71565b34801561057f57600080fd5b5060055461024190600160601b900463ffffffff1681565b3480156105a357600080fd5b506102f37f8b8c0776df2c2176edf6f82391c35ea4891146d7a976ee36fd07f1a6fb4ead4c81565b3480156105d757600080fd5b506102f36105e636600461184e565b610e97565b3480156105f757600080fd5b506102c16106063660046119f3565b610f35565b34801561061757600080fd5b506102c161062636600461184e565b610f85565b60006001600160e01b03198216635a05180f60e01b14806106505750610650826110b9565b92915050565b60606000610663866110ee565b90506000356001600160e01b031990811690821614156106f05760405162461bcd60e51b815260206004820152603d60248201527f66756e6374696f6e5369676e61747572652063616e206e6f74206265206f662060448201527f657865637574654d6574615472616e73616374696f6e206d6574686f6400000060648201526084015b60405180910390fd5b604080516060810182526001600160a01b0389166000818152600460209081529084902054835282015290810187905261072d888288888861110a565b6107835760405162461bcd60e51b815260206004820152602160248201527f5369676e657220616e64207369676e617475726520646f206e6f74206d6174636044820152600d60fb1b60648201526084016106e7565b6001600160a01b0388166000908152600460205260409020546107a7906001611c2d565b6001600160a01b03891660009081526004602090815260408083209390935591519091829130916107dc918c918e9101611b04565b60408051601f19818403018152908290526107f691611ae8565b6000604051808303816000865af19150503d8060008114610833576040519150601f19603f3d011682016040523d82523d6000602084013e610838565b606091505b50915091508161088a5760405162461bcd60e51b815260206004820152601c60248201527f46756e6374696f6e2063616c6c206e6f74207375636365737366756c0000000060448201526064016106e7565b7f5845892132946850460bff5a0083f71031bc5bf9aadcd40f1de79423eac9b10b8a338b6040516108bd93929190611bb0565b60405180910390a19998505050505050505050565b7f8b8c0776df2c2176edf6f82391c35ea4891146d7a976ee36fd07f1a6fb4ead4c6108fd81336111e6565b610905610e28565b1561094a5760405162461bcd60e51b81526020600482015260156024820152742930b13134ba2937b1b5b2ba1d1024b99027bb32b960591b60448201526064016106e7565b506005805460ff60801b1916600160801b179055600680546001600160a01b039092166001600160a01b0319909216919091179055565b60008281526020819052604090206001015461099d81336111e6565b6109a7838361124a565b505050565b6040516351cff8d960e01b81526001600160a01b0382811660048301527f000000000000000000000000000000000000000000000000000000000000000016906351cff8d990602401600060405180830381600087803b158015610a0f57600080fd5b505af1158015610a23573d6000803e3d6000fd5b5050505050565b6001600160a01b0381163314610a9a5760405162461bcd60e51b815260206004820152602f60248201527f416363657373436f6e74726f6c3a2063616e206f6e6c792072656e6f756e636560448201526e103937b632b9903337b91039b2b63360891b60648201526084016106e7565b610aa4828261126c565b5050565b6002546001600160a01b03163314610ad25760405162461bcd60e51b81526004016106e790611bf8565b60058054600680546001600160a01b0319166001600160a01b03959095169490941790935563ffffffff96871667ffffffffffffffff199093169290921764010000000095871695909502949094176fffffffffffffffff00000000000000001916600160601b9386169390930263ffffffff60401b191692909217600160401b91909416029290921760ff60801b1916600160801b91151591909102179055565b7f8b8c0776df2c2176edf6f82391c35ea4891146d7a976ee36fd07f1a6fb4ead4c610b9f81336111e6565b610ba7610e28565b15610bec5760405162461bcd60e51b81526020600482015260156024820152742930b13134ba2937b1b5b2ba1d1024b99027bb32b960591b60448201526064016106e7565b600680546001600160a01b0319166001600160a01b038416179055600554600090610c2490600160601b900463ffffffff1642611c45565b60055490915063ffffffff600160401b909104811690821611156109a7576005805463ffffffff8316600160401b0263ffffffff60401b19909116179055505050565b6000610c7c6005544263ffffffff9091161090565b8015610c8d5750610c8b610e28565b155b8015610ca957506005544264010000000090910463ffffffff16115b905090565b6002546001600160a01b03163314610cd85760405162461bcd60e51b81526004016106e790611bf8565b6005805463ffffffff83811664010000000090810267ffffffffffffffff19909316828716179290921792839055610d1c92600160601b8104821692900416611c45565b600560086101000a81548163ffffffff021916908363ffffffff1602179055505050565b6002546001600160a01b03163314610d6a5760405162461bcd60e51b81526004016106e790611bf8565b610d74600061128e565b565b6000828152600160205260408120610d8e90836112e0565b9392505050565b6000918252602082815260408084206001600160a01b0393909316845291905290205460ff1690565b610dc6610e28565b610e125760405162461bcd60e51b815260206004820152601960248201527f526162626974526f636b65743a204973204e6f74204f7665720000000000000060448201526064016106e7565b600654610d74906001600160a01b0316476112ec565b600554600090600160801b900460ff1615610e435750600190565b5060055442600160401b90910463ffffffff161090565b60008181526001602052604081206106509061136d565b600082815260208190526040902060010154610e8d81336111e6565b6109a7838361126c565b6040516371d4ed8d60e11b81526001600160a01b0382811660048301526000917f00000000000000000000000000000000000000000000000000000000000000009091169063e3a9db1a9060240160206040518083038186803b158015610efd57600080fd5b505afa158015610f11573d6000803e3d6000fd5b505050506040513d601f19601f8201168201806040525081019061065091906119db565b6002546001600160a01b03163314610f5f5760405162461bcd60e51b81526004016106e790611bf8565b6005805463ffffffff909216600160601b0263ffffffff60601b19909216919091179055565b6002546001600160a01b03163314610faf5760405162461bcd60e51b81526004016106e790611bf8565b6001600160a01b0381166110145760405162461bcd60e51b815260206004820152602660248201527f4f776e61626c653a206e6577206f776e657220697320746865207a65726f206160448201526564647265737360d01b60648201526084016106e7565b61101d8161128e565b50565b61102a8282610d95565b610aa4576000828152602081815260408083206001600160a01b03851684529091529020805460ff191660011790556110603390565b6001600160a01b0316816001600160a01b0316837f2f8788117e7eff1d82e926ec794901d17c78024a50270940304540a733656f0d60405160405180910390a45050565b6000610d8e836001600160a01b038416611377565b60006001600160e01b03198216637965db0b60e01b148061065057506301ffc9a760e01b6001600160e01b0319831614610650565b600081516000141561110257506000919050565b506020015190565b600080600161112061111b886113c6565b611443565b6040805160008152602081018083529290925260ff861690820152606081018790526080810186905260a0016020604051602081039080840390855afa15801561116e573d6000803e3d6000fd5b5050604051601f1901519150506001600160a01b0381166111c55760405162461bcd60e51b8152602060048201526011602482015270496e76616c6964207369676e617475726560781b60448201526064016106e7565b866001600160a01b0316816001600160a01b03161491505095945050505050565b6111f08282610d95565b610aa457611208816001600160a01b03166014611473565b611213836020611473565b604051602001611224929190611b3b565b60408051601f198184030181529082905262461bcd60e51b82526106e791600401611be5565b6112548282611020565b60008281526001602052604090206109a790826110a4565b6112768282611655565b60008281526001602052604090206109a790826116ba565b600280546001600160a01b038381166001600160a01b0319831681179093556040519116919082907f8be0079c531659141344cd1fd0a4f28419497f9722a3daafe3b4186f6b6457e090600090a35050565b6000610d8e83836116cf565b60405163f340fa0160e01b81526001600160a01b0383811660048301527f0000000000000000000000000000000000000000000000000000000000000000169063f340fa019083906024016000604051808303818588803b15801561135057600080fd5b505af1158015611364573d6000803e3d6000fd5b50505050505050565b6000610650825490565b60008181526001830160205260408120546113be57508154600181810184556000848152602080822090930184905584548482528286019093526040902091909155610650565b506000610650565b6000604051806080016040528060438152602001611d2c6043913980516020918201208351848301516040808701518051908601209051611426950193845260208401929092526001600160a01b03166040830152606082015260800190565b604051602081830303815290604052805190602001209050919050565b600061144e60035490565b60405161190160f01b6020820152602281019190915260428101839052606201611426565b60606000611482836002611c6d565b61148d906002611c2d565b67ffffffffffffffff8111156114b357634e487b7160e01b600052604160045260246000fd5b6040519080825280601f01601f1916602001820160405280156114dd576020820181803683370190505b509050600360fc1b8160008151811061150657634e487b7160e01b600052603260045260246000fd5b60200101906001600160f81b031916908160001a905350600f60fb1b8160018151811061154357634e487b7160e01b600052603260045260246000fd5b60200101906001600160f81b031916908160001a9053506000611567846002611c6d565b611572906001611c2d565b90505b6001811115611606576f181899199a1a9b1b9c1cb0b131b232b360811b85600f16601081106115b457634e487b7160e01b600052603260045260246000fd5b1a60f81b8282815181106115d857634e487b7160e01b600052603260045260246000fd5b60200101906001600160f81b031916908160001a90535060049490941c936115ff81611cd3565b9050611575565b508315610d8e5760405162461bcd60e51b815260206004820181905260248201527f537472696e67733a20686578206c656e67746820696e73756666696369656e7460448201526064016106e7565b61165f8282610d95565b15610aa4576000828152602081815260408083206001600160a01b0385168085529252808320805460ff1916905551339285917ff6391f5c32d9c69d2a47ea670b442974b53935d1edc7fd64eb21e047a839171b9190a45050565b6000610d8e836001600160a01b038416611707565b60008260000182815481106116f457634e487b7160e01b600052603260045260246000fd5b9060005260206000200154905092915050565b6000818152600183016020526040812054801561181a57600061172b600183611c8c565b855490915060009061173f90600190611c8c565b90508181146117c057600086600001828154811061176d57634e487b7160e01b600052603260045260246000fd5b906000526020600020015490508087600001848154811061179e57634e487b7160e01b600052603260045260246000fd5b6000918252602080832090910192909255918252600188019052604090208390555b85548690806117df57634e487b7160e01b600052603160045260246000fd5b600190038181906000526020600020016000905590558560010160008681526020019081526020016000206000905560019350505050610650565b6000915050610650565b803563ffffffff8116811461183857600080fd5b919050565b803560ff8116811461183857600080fd5b60006020828403121561185f578081fd5b8135610d8e81611d16565b600080600080600060a08688031215611881578081fd5b853561188c81611d16565b9450602086013567ffffffffffffffff808211156118a8578283fd5b818801915088601f8301126118bb578283fd5b8135818111156118cd576118cd611d00565b604051601f8201601f19908116603f011681019083821181831017156118f5576118f5611d00565b816040528281528b602084870101111561190d578586fd5b826020860160208301379182016020018590525095505050604086013592506060860135915061193f6080870161183d565b90509295509295909350565b60006020828403121561195c578081fd5b5035919050565b60008060408385031215611975578182fd5b82359150602083013561198781611d16565b809150509250929050565b600080604083850312156119a4578182fd5b50508035926020909101359150565b6000602082840312156119c4578081fd5b81356001600160e01b031981168114610d8e578182fd5b6000602082840312156119ec578081fd5b5051919050565b600060208284031215611a04578081fd5b610d8e82611824565b60008060408385031215611a1f578182fd5b611a2883611824565b9150611a3660208401611824565b90509250929050565b60008060008060008060c08789031215611a57578081fd5b611a6087611824565b9550611a6e60208801611824565b9450611a7c60408801611824565b9350611a8a60608801611824565b92506080870135611a9a81611d16565b915060a08701358015158114611aae578182fd5b809150509295509295509295565b60008151808452611ad4816020860160208601611ca3565b601f01601f19169290920160200192915050565b60008251611afa818460208701611ca3565b9190910192915050565b60008351611b16818460208801611ca3565b60609390931b6bffffffffffffffffffffffff19169190920190815260140192915050565b7f416363657373436f6e74726f6c3a206163636f756e7420000000000000000000815260008351611b73816017850160208801611ca3565b7001034b99036b4b9b9b4b733903937b6329607d1b6017918401918201528351611ba4816028840160208801611ca3565b01602801949350505050565b6001600160a01b03848116825283166020820152606060408201819052600090611bdc90830184611abc565b95945050505050565b602081526000610d8e6020830184611abc565b6020808252818101527f4f776e61626c653a2063616c6c6572206973206e6f7420746865206f776e6572604082015260600190565b60008219821115611c4057611c40611cea565b500190565b600063ffffffff808316818516808303821115611c6457611c64611cea565b01949350505050565b6000816000190483118215151615611c8757611c87611cea565b500290565b600082821015611c9e57611c9e611cea565b500390565b60005b83811015611cbe578181015183820152602001611ca6565b83811115611ccd576000848401525b50505050565b600081611ce257611ce2611cea565b506000190190565b634e487b7160e01b600052601160045260246000fd5b634e487b7160e01b600052604160045260246000fd5b6001600160a01b038116811461101d57600080fdfe4d6574615472616e73616374696f6e2875696e74323536206e6f6e63652c616464726573732066726f6d2c62797465732066756e6374696f6e5369676e617475726529a2646970667358221220949f5941a5255e7545a100a0b92015729f74350c490f931a91ade8dabbd7af6464736f6c63430008040033608060405234801561001057600080fd5b5061001a3361001f565b61006f565b600080546001600160a01b038381166001600160a01b0319831681178455604051919092169283917f8be0079c531659141344cd1fd0a4f28419497f9722a3daafe3b4186f6b6457e09190a35050565b6105718061007e6000396000f3fe6080604052600436106100555760003560e01c806351cff8d91461005a578063715018a61461007c5780638da5cb5b14610091578063e3a9db1a146100be578063f2fde38b14610102578063f340fa0114610122575b600080fd5b34801561006657600080fd5b5061007a6100753660046104aa565b610135565b005b34801561008857600080fd5b5061007a6101d7565b34801561009d57600080fd5b506000546040516001600160a01b0390911681526020015b60405180910390f35b3480156100ca57600080fd5b506100f46100d93660046104aa565b6001600160a01b031660009081526001602052604090205490565b6040519081526020016100b5565b34801561010e57600080fd5b5061007a61011d3660046104aa565b61020d565b61007a6101303660046104aa565b6102a8565b6000546001600160a01b031633146101685760405162461bcd60e51b815260040161015f906104cd565b60405180910390fd5b6001600160a01b0381166000818152600160205260408120805491905590610190908261033c565b816001600160a01b03167f7084f5476618d8e60b11ef0d7d3f06914655adb8793e28ff7f018d4c76d505d5826040516101cb91815260200190565b60405180910390a25050565b6000546001600160a01b031633146102015760405162461bcd60e51b815260040161015f906104cd565b61020b600061045a565b565b6000546001600160a01b031633146102375760405162461bcd60e51b815260040161015f906104cd565b6001600160a01b03811661029c5760405162461bcd60e51b815260206004820152602660248201527f4f776e61626c653a206e6577206f776e657220697320746865207a65726f206160448201526564647265737360d01b606482015260840161015f565b6102a58161045a565b50565b6000546001600160a01b031633146102d25760405162461bcd60e51b815260040161015f906104cd565b6001600160a01b0381166000908152600160205260408120805434928392916102fc908490610502565b90915550506040518181526001600160a01b038316907f2da466a7b24304f47e87fa2e1e5a81b9831ce54fec19055ce277ca2f39ba42c4906020016101cb565b8047101561038c5760405162461bcd60e51b815260206004820152601d60248201527f416464726573733a20696e73756666696369656e742062616c616e6365000000604482015260640161015f565b6000826001600160a01b03168260405160006040518083038185875af1925050503d80600081146103d9576040519150601f19603f3d011682016040523d82523d6000602084013e6103de565b606091505b50509050806104555760405162461bcd60e51b815260206004820152603a60248201527f416464726573733a20756e61626c6520746f2073656e642076616c75652c207260448201527f6563697069656e74206d61792068617665207265766572746564000000000000606482015260840161015f565b505050565b600080546001600160a01b038381166001600160a01b0319831681178455604051919092169283917f8be0079c531659141344cd1fd0a4f28419497f9722a3daafe3b4186f6b6457e09190a35050565b6000602082840312156104bb578081fd5b81356104c681610526565b9392505050565b6020808252818101527f4f776e61626c653a2063616c6c6572206973206e6f7420746865206f776e6572604082015260600190565b6000821982111561052157634e487b7160e01b81526011600452602481fd5b500190565b6001600160a01b03811681146102a557600080fdfea264697066735822122088702fd4ddcea429b86ffcb261f544be05e79d5fd7b90a9f3a7ecefbe3b90e2c64736f6c63430008040033454950373132446f6d61696e28737472696e67206e616d652c737472696e672076657273696f6e2c6164647265737320766572696679696e67436f6e74726163742c627974657333322073616c74294f776e61626c653a2063616c6c6572206973206e6f7420746865206f776e6572",
  "linkReferences": {},
  "deployedLinkReferences": {}
}